:020000040800F2
:1000000080070020A1010008CF320008B32C0008AF
:10001000CD32000871050008C73800080000000054
:10002000000000000000000000000000E5330008B0
:100030001D07000800000000D1320008E733000867
:10004000BB010008BB010008BB010008BB010008A0
:10005000BB010008BB010008BB010008BB01000890
:100060001F070008250700082B070008BB01000830
:10007000BB010008BB010008BB010008BB01000870
:10008000BB010008BB010008BB010008BB01000860
:1000900075050008BB010008BB0100083107000816
:1000A000BB010008BB010008BB010008BB01000840
:1000B00095340008A1340008AD340008BB010008E5
:1000C000BB010008BB010008BB010008BB01000820
:1000D000BB010008BB010008BB010008BB01000810
:1000E000BB010008BB010008BB010008BB01000800
:1000F000BB010008BB010008BB010008BB010008F0
:10010000BB010008BB010008BB010008BB010008DF
:10011000BB010008BB010008BB010008BB010008CF
:100120006D060008BB010008BB010008BB01000808
:10013000BB010008BB010008BB010008BB010008AF
:10014000BB010008BB010008BB010008BB0100089F
:10015000BB010008BB010008BB010008BB0100088F
:10016000BB010008BB010008BB010008BB0100087F
:10017000BB010008BB010008BB0100080000000033
:10018000BB010008BB010008DFF810D000F002F945
:1001900000480047793A0008AFF30080800700204C
:1001A0000648804706480047FEE7FEE7FEE7FEE711
:1001B000FEE7FEE7FEE7FEE7FEE7FEE78534000820
:1001C000890100082DE9F05F0546002092469B4614
:1001D00088460646814640241BE02846414647465D
:1001E000224600F06AF853465A46C01A914110D38D
:1001F00011461846224600F051F82D1A67EB010807
:100200004F4622460120002100F048F817EB000974
:100210004E41201EA4F10104DFDC484631462A4647
:100220004346BDE8F09FD2B201E000F8012B491E21
:10023000FBD270470022F6E710B513460A46044683
:100240001946FFF7F0FF204610BD0EB5C10F80EA3A
:10025000E0700844CA07002140F233438DE80E00E5
:100260000A460B4600F048F803B000BD30B5041E46
:1002700071F1000404DB4FF00044404264EB0101E3
:10028000141E73F1000405DB1C464FF0004352427C
:1002900063EB0403994208BF904230BD202A04DB7F
:1002A000203A00FA02F1002070479140C2F1200389
:1002B00020FA03F3194390407047202A04DB203AC8
:1002C00021FA02F00021704721FA02F3D040C2F176
:1002D0002002914008431946704710B5141E73F16F
:1002E000000408DA401C41F1000192185B411A43F6
:1002F00001D120F0010010BD2DE9F04D92469B4642
:1003000011B1B1FA81F202E0B0FA80F220329046E7
:10031000FFF7C4FF04460F4640EA0A0041EA0B011A
:1003200053465A46084313D0114653EA010019D0E8
:10033000C8F140025046FFF7C0FF05460E46504642
:1003400059464246FFF7AAFF084305D0012004E0C2
:1003500020463946BDE8F08D0020054346EAE076A8
:100360002C4337430A986305E40AA0EB08000022F7
:10037000FD0A44EA47540A3002D500200146E9E765
:10038000010510196941DDE9084500196941BDE819
:10039000F04DA2E7064C074D06E0E06840F001038F
:1003A00094E8070098471034AC42F6D3FFF7F0FE0C
:1003B000A83C0008C83C000810B50146806B026CE0
:1003C00012F0500F05D0026CD20626D500F05EFA6E
:1003D00010BD016C41F40071016401688A6812F07B
:1003E000405F17D1027EAAB9CA6A12F4700F02D018
:1003F0008A6852050ED44A6822F020024A60016CD5
:1004000021F480710164016CC90403D4016C41F0D2
:100410000101016400F038FA10BD806BC26CBDE8C8
:1004200010400846104710B5806B40210164416CB4
:1004300041F00401416400F029FA10BD10B5806B51
:1004400000F023FA10BD0000464910B54A6822F4B6
:1004500040324A604A6843681A434A6001684A6801
:1004600022F480724A6001684A68036942EA032202
:100470004A6001684A6822F040724A6001684A682E
:1004800083681A434A6001688A6822F400628A60BD
:1004900001688A68C3681A438A60816A6FF0706273
:1004A000D14201688A6822F070628A6001688A68B5
:1004B0000CD0836A1A438A6001688A6822F040522D
:1004C0008A6001688A68C36A1A4301E022F04052D8
:1004D0008A6001688A6822F002028A6001688A687C
:1004E000037E42EA43028A6090F8201000290168E6
:1004F0004A680FD042F400624A6001684A6822F4F8
:1005000060424A6001684A68174C436A04EB43330F
:100510001A4301E022F400624A600168CA6A22F4C8
:100520007002CA620168CA6A838B104C04EB0353E1
:100530001A43CA6201688A6822F400728A600168FC
:100540008A6890F8303042EA43228A6001688A68FB
:1005500022F480628A6001688A68406942EA8020E9
:10056000886010BD0023014000E0FFFF0000F0FFA5
:10057000FEE70000014800F036BC0000D00100207A
:1005800010B5264800F004FE08B172B6FEE7244913
:10059000C0200122C1E900020020C86008230B61CD
:1005A00088600875183170240C60C1E90303C1E943
:1005B000012008751B49A1F14A0408704870887031
:1005C000C870247A0C7148718871C871083184F040
:1005D0000104087048708870C8700C714871887187
:1005E000C8710F49C12430310C60C1E90303C1E96E
:1005F00001200875183171240C60C1E90303C1E9B9
:100600000120087507491031087048708A70C87059
:10061000087148718871C87110BD0000D0010020B8
:10062000AC0000204A00002000B58BB00020012162
:100630000190029008910590CDE906010490009088
:1006400003900E2009906946074800F0D1FA08B1DE
:1006500072B6FEE70221044800F04AFA002801D0F1
:1006600072B6FEE70BB000BDD0010020014800F0DB
:10067000C3BD00007001002001681823CAB2103AFF
:10068000B2FBF3F2054B6FF30901032A9B5CC365D0
:1006900000D9091D8165084670470000883C0008A4
:1006A00010B5014600208B698A6A4FF0C07453B1BF
:1006B000B3F5005F15D072B1012A0CD0022A0AD01E
:1006C000032A09D104E01AB1012A06D0022A03D173
:1006D000C96AC90100D5012010BDC96AA142FAD07A
:1006E00010BD002AF7D0012AF2D0022AF3D0032A43
:1006F000F3D010BD30B50468256825F48025256049
:10070000046863608368402B036803D099600068C5
:10071000C26030BD9A600068C16030BD704704207F
:1007200000F000BF082000F0FDBE102000F0FABE6F
:10073000202000F0F7BE72B6FEE7000078B5002476
:10074000009490F83C20012A19D0012280F83C2026
:100750000A6807230568092A13D9EE680A3A02EBEA
:10076000420293409E43EE600B788A680A3B03EB9B
:1007700043039A400368DD682A43DA6010E00220F0
:1007800078BD2E6902EB420293409E432E610B78A6
:100790008A6803EB43039A4003681D692A431A6180
:1007A0004A681F23072A13D205686E6B521E02EB9C
:1007B000820293409E436E630B790A885B1E92B25D
:1007C00003EB83039A4003685D6B2A435A6327E077
:1007D00005680D2A12D22E6BD21F02EB82029340C3
:1007E0009E432E630B790A88DB1F92B203EB8303CF
:1007F0009A4003681D6B2A431A6311E0EE6A0D3AB2
:1008000002EB820293409E43EE620B790A880D3B15
:1008100092B203EB83039A400368DD6A2A43DA62EB
:10082000164B0568144A9D4206D10D68122D03D15E
:10083000556845F48005556005689D4218D10B68E0
:10084000102B01D0112B13D1536843F400035360D4
:10085000096810290CD10A490A4A0968B1FBF2F16A
:1008600001EB8101490000E0491E00910029FBD104
:1008700080F83C40002078BD00230140002001406A
:100880009C00002040420F0070477047704770B5D1
:1008900004004FF0000503D0206C002610B107E0E3
:1008A000012070BD204600F01DF8666484F83C60AD
:1008B000206CC00610D4206C20F4885040F0020058
:1008C00020642046FFF7C0FD6664206C20F0020023
:1008D00040F00100206400E0012584F83C602846D7
:1008E00070BD000070B586B0064614216846FFF75B
:1008F000A1FC24493068884242D123480025016880
:1009000041F48071016000681F4900F4807014395F
:100910000590086840F001000860086800F00100D8
:100920000590086840F0040008600868032400F09F
:10093000040005901D208DE831006946134800F041
:10094000FDFD10208DE831006946114800F0F6FDEC
:10095000114C1048C4E900050015A560C4E9035016
:10096000400060618000A0614011C4E90705204695
:10097000656200F011FD08B1FFF7DDFEB463A66308
:1009800006B070BD00200140443802400000024023
:10099000000802401064024070010020F8B50446CF
:1009A00000200E46009094F83C10012907D0012148
:1009B00084F83C1021688B68DB0702D011E002202C
:1009C000F8BD8B6843F001038B604049404B0968D8
:1009D000B1FBF3F101EB410100E0491E0091002958
:1009E000FBD121688B68DB0503D58B6823F480730A
:1009F0008B6021688B68DB075DD0236C40F201655A
:100A0000AB4343F4807323644968490505D5216CE1
:100A100021F4005141F480512164216CC90404D5B2
:100A2000616C21F00601616400E0606484F83C00C0
:100A3000A16B2948274DC863A16B28480864A16BA6
:100A40002748C86421686FF0220008602068416868
:100A500041F0806141602068816841F4807181606B
:100A60002168134632464C31A06B00F0FFFC6868E9
:100A70001C49C006206806D0884224D1816811F044
:100A8000405F13D01FE08842F8D0174A904203D14C
:100A9000D1F80423D206F1D0144A904213D1D1F8F0
:100AA000041301F01F011029E8D30CE0816841F024
:100AB0008041816007E0206C40F010002064606C91
:100AC00040F0010060640020F8BD00009C000020A0
:100AD00040420F0000230140B90300083D04000814
:100AE00027040008002001400021014000220140AD
:100AF00090F82020012A07D0022A05D0416A41F44B
:100B00008021416201207047006842690A434261C6
:100B100000207047F0B590F820500468A468012DBB
:100B200005D0022D03D0416A41F480215DE014F02C
:100B3000406F01D1E50055D5C4F30164022C03D9FF
:100B4000416A41F4000150E00125A5401D608D6817
:100B50004FF4C0739DB1CE6835434E6845EAC60573
:100B6000066803EB0417F5514FF4C275076805EBEF
:100B700004150E697E51097D012905D009E00E8812
:100B8000CD6845EA4655EBE701684E5946F4807654
:100B90004E511179D579567941EA056195792D043F
:100BA00045EA062529434FF4C676056806EB041688
:100BB000A9511178D57841EA0561957852782D04CC
:100BC00045EA022211434FF4C475026805EB04158F
:100BD0005151006803EB0411425842F001024250A7
:100BE0000020F0BD416A41F4001141620120F0BDD6
:100BF00010B590F82020012A07D0022A05D0416ABA
:100C000041F480214162012010BD3B48D0F8002210
:100C100042F00102C0F80022D0F8002222F47C52F7
:100C2000C0F80022D0F800224B6A42EA0322C0F842
:100C300000220A7D02F01F0301229A40D0F81C32E4
:100C40009343C0F81C32CB69B3B9D0F80C3293434C
:100C5000C0F80C328C894B6864F31F434C6900EB7D
:100C6000C404C4F840320C890B6864F31F434C6918
:100C700000EBC404C4F84432CB69012B16D1D0F880
:100C80000C321343C0F80C320C884B6864F31F43DA
:100C90004C6900EBC404C4F840320C89CB6864F39F
:100CA0001F434C6900EBC404C4F844328B69002B29
:100CB000D0F804320ED01343C0F804320B69002B75
:100CC000D0F8143208D01343C0F81432096A01294D
:100CD00004D008E09343EFE79343F5E7D0F81C1204
:100CE0001143C0F81C12D0F8001221F00101C0F825
:100CF0000012002010BD000000640040704730B5B5
:100D000090F82040012C05D0022C03D0416A41F418
:100D100080215DE00468002955D02469A40754D0DF
:100D20004FF4D874056804EB01142D5915F004052F
:100D3000956005682D594ED0ED08556005682C5911
:100D400004F00204D4604FF4DA74056804EB011473
:100D50002D5905F00F05156105682D59C5F30725B7
:100D6000956105682C59240C54614FF4DC720468B9
:100D700002EB0112A4581C700468A458240A5C7089
:100D80000468A458240C9C700468A258120EDA70EF
:100D90004FF4DE72046802EB0112A4581C7104685F
:100DA000A458240A5C710468A458240C9C7104683B
:100DB000A258120EDA71006881B1016941F0200178
:100DC0000161002030BDE468A8E7416A41F40011E8
:100DD0004162012030BD6D0D1560AFE7C16841F083
:100DE0002001C160EDE72DE9F05F054600680024B1
:100DF0004669D0F804908768D0F80CB0D0F810A0FD
:100E0000D0F81880F10748D0F90714D0012181608B
:100E1000B80703D5284600F0E8F90CE0780702D5BA
:100E20004FF4006407E0380702D54FF4805402E025
:100E3000284600F0D9F9F80516D529684FF48070D6
:100E40008860B80503D5284600F0D1F90CE0780594
:100E500002D544F4005407E0380502D544F4804438
:100E600002E0284600F0C2F9F80316D529684FF4CD
:100E700080308860B80303D5284600F0BAF90CE04A
:100E8000780302D544F4004407E0380302D544F463
:100E9000803402E0284600F0ABF9300707D55FEA5E
:100EA000CB6004D52968102044F40074C860700732
:100EB0004FF0080707D55FEA0B7004D52868C760B4
:100EC000284600F04FF9B00706D52868C0688007AB
:100ED00002D0284600F048F9700607D55FEACA60DC
:100EE00004D52968102044F480640861B00607D551
:100EF0005FEA0A7004D528680761284600F044F9C3
:100F0000F00606D528680069800702D0284600F060
:100F10003CF9B00308D55FEAC96005D529681020FF
:100F20004860284600F032F9F00307D55FEA0970FF
:100F300004D528684760284600F05CF9300446D59F
:100F40005FEA497040D5F00504D55FEAC87001D06A
:100F500044F00104B00504D55FEA887001D544F07F
:100F60000204700504D55FEA487001D544F004041A
:100F7000300529D518F0700F26D008F070004028F1
:100F800015D006DC102809D020280AD0302816D128
:100F90000AE050280ED0602811D10EE044F0080479
:100FA0000DE044F010040AE044F0200407E044F0AF
:100FB000400404E044F0800401E044F480742868B4
:100FC000816921F070018161296804204860002C4A
:100FD00005D0686A204368622846FFF78FFEBDE8A7
:100FE000F09F70B5040003D094F8200010B104E025
:100FF000012070BD204600F081F82068016821F0D2
:101000000201016000F0A2FB0546052604E000F0A5
:101010009DFB401B0A2811D8206840688007F6D441
:101020002068016841F00101016000F08FFB054676
:101030000BE000F08BFB401B0A2806D9606A40F4E5
:101040000030606284F82060D2E720684068C00702
:10105000EFD0207E0128206801683DD021F080017A
:101060000160607E01282068016838D021F04001CD
:101070000160A07E01282068016833D021F02001A2
:101080000160E07E0128206801682ED041F0100147
:101090000160207F01282068016829D021F0080123
:1010A0000160607F01282068016824D021F00401DC
:1010B0000160D4E902010843D4E904121143084352
:1010C0006168491E08432168C861002060620120F0
:1010D00084F82000002070BD41F08001C0E741F09D
:1010E0004001C5E741F02001CAE721F01001CFE738
:1010F00041F00801D4E741F00401D9E710B586B00A
:10110000044614216846FFF795F813492068884281
:101110001FD112480021026842F00072026000688C
:1011200000F0007005900D481038026842F0080287
:1011300002600068022200F0080005900320CDE95B
:101140000210CDE90002092004906946044800F02D
:10115000F5F906B010BD00000064004040380240C0
:10116000000C02407047000010B5054B054A0021F5
:10117000FFF7C5FD002801D072B6FEE710BD0000E4
:10118000620000200C01002070477047704700008B
:1011900070B5044690F82000012804D0606A40F43D
:1011A0000020606218E0022084F8200020680168B6
:1011B00021F00101016000F0C9FA05460EE000BF10
:1011C00000F0C4FA401B0A2808D9606A40F40030D5
:1011D0006062052084F82000012070BD206840680E
:1011E000C007EDD1606270BD7047704770477047AF
:1011F00070477047704700002DE9F84304464FF0F0
:101200000009CDF8009063484FF41651A56D0068B1
:10121000B0FBF1F72E6894F85C10082000FA01F199
:1012200031420FD021680A6852070BD50A6822F0B4
:1012300004020A6094F85C108840A860606D40F079
:101240000100606594F85C104FF0010808FA01F0A5
:10125000304208D021684969090604D5A860606D4C
:1012600040F00200606594F85C1004208840304231
:1012700008D021680968890704D5A860606D40F02E
:101280000400606594F85C1010208840304218D04B
:1012900021680968090714D5A86020680168490316
:1012A00004D50068000308D5A16C07E00168C905F2
:1012B00003D4016821F008010160216C09B12046C6
:1012C000884794F85C1020208840304231D0216853
:1012D0000968C9062DD5A86094F83500052820684E
:1012E000016806D0490347D5006800031DD4616C2E
:1012F0001CE021F0160101602068416921F08001A5
:101300004161206C08B9A06C20B12068016821F00F
:101310000801016094F85C103F208840A86084F8C0
:10132000349084F83580216D1FE0E16B09B12046CF
:101330008847606D00282BD0606DC00714D0052051
:1013400084F835002068016821F0010101600098EF
:10135000401C0090B84203D820680068C007F6D14E
:1013600084F8349084F83580E16C002910D001B005
:101370002046BDE8F04308470168C905D5D4016897
:1013800021F01001016084F8349084F83580CCE7B6
:10139000BDE8F8839C0000202DE9F041044600F0F0
:1013A000D5F906465CB1002584F83450022084F853
:1013B00035002068016821F0010101600DE0012085
:1013C000BDE8F08100F0C2F9801B052805D9202076
:1013D0006065032084F83500F2E720680068C007E4
:1013E000F0D12268116820480140D4E90103184374
:1013F000D4E903363343184363691843A369184398
:10140000E3691843236A18430843616A042903D136
:10141000D4E90B1319430843106020684069666AD9
:1014200020F0070130460E43012704280CD1A06AA2
:101430000643E06A40B12046FFF732F920B1402070
:10144000606584F83570BAE7206846612046FFF78A
:1014500013F994F85C203F2191408160656584F820
:1014600035700020ACE700003F8010F02DE9F0411E
:101470000446866D90F83400002501280DD0012027
:1014800084F8340094F835700020012F07D084F8D8
:10149000340002252846BDE8F0810220FBE7022740
:1014A00084F8357060652046FFF724F994F85C10E5
:1014B0003F208840B0602068016841F0160101605B
:1014C000206C20B12068016841F0080101602068AB
:1014D000016841F001010160DCE7000070B50446DD
:1014E00000F034F90546601C02D00448007804443A
:1014F00000F02CF9401BA042FAD370BD90000020F0
:1015000010B5042807D10421044800F00DF904495E
:1015100010B10020087010BD0120FBE70010024050
:1015200000000020044910B50A68024202D0086099
:10153000FFF7E6FF10BD0000143C01402DE9F84F15
:10154000DFF8B8A1002201250AF1040B03264FF0B1
:101550000F090BF1040E00BF0B6805FA02F42340DB
:10156000A3426FD10F7907F00307012F01D0022F9B
:1015700016D187684FEA420806FA08FC27EA0C07EA
:10158000D1F80CC00CFA08FC4CEA070CC0F808C0F3
:101590004768A7430C79C4F3001494403C4344606B
:1015A0000C79E443A4070AD0C4684FEA420C06FA57
:1015B0000CF7BC438F6807FA0CF72743C7600C7918
:1015C00004F00304022C12D1D40800EB840CDCF8E4
:1015D00020405707FF0E09FA07F824EA0804D1F85B
:1015E000108008FA07F848EA0408CCF8208004685C
:1015F0004FEA420C06FA0CF7BC430F7907F00307D9
:1016000007FA0CF7274307604C68E40070D53C4CA0
:10161000276847F480472760246822F0030704F412
:1016200080440094374C07EB040CDCF8084897071B
:101630004FEA177809FA08F7BC43334FB84202D192
:10164000002724E054E0314FB84201D101271EE0C9
:101650002F4FB84201D1022719E02E4FB84201D1D5
:10166000032714E02C4FB84201D104270FE02B4F81
:10167000B84201D105270AE0294FB84201D1062717
:1016800005E0284FB84201D1072700E0082707FAF4
:1016900008F72743CCF80878DAF800405746D1F825
:1016A00004C09C435FEACC3C00D51C433C60DBF8A3
:1016B00000405F46D1F804C09C435FEA8C3C00D5F3
:1016C0001C433C60DEF800407746D1F804C09C43E0
:1016D0005FEACC2C00D51C433C60084F0C373C68BB
:1016E000D1F804C09C435FEA8C2C00D51C433C60BD
:1016F000521C102AFFF430AFBDE8F88F003C0140C7
:101700004438024000300140000002400004024022
:1017100000080240000C0240001002400014024089
:1017200000180240001C02400069084000D001205F
:101730007047426921EA02030A4043EA024181619B
:1017400070470AB1816170470904FBE7014880686E
:10175000704700009000002070B5040011D021688F
:101760004CF6CC400860216845F255500860D4E939
:10177000000141602168A0688860FFF7E7FF054627
:101780000DE0012070BD00BFFFF7E0FF401B3028D7
:1017900005D92068C068800701D0032070BD20688B
:1017A000C0688007F0D121684AF6AA2008600020AE
:1017B00070BD00684AF6AA21016000207047000051
:1017C00002488168027811448160704790000020CF
:1017D0000B4810B5016841F400710160016841F4E3
:1017E00080610160016841F480710160032000F0B4
:1017F00071F8002000F006F800F024F8002010BD79
:10180000003C024070B50D4D04464FF47A712878C3
:10181000B1FBF0F00A490968B1FBF0F000F055FCAB
:1018200048B9102C07D200222146501E00F032F891
:1018300000206C6070BD012070BD00009000002091
:101840009C0000200B4882B0016841F48041016097
:10185000006800F4804000900648001F016841F0D5
:1018600080510160006800F080500090052002B0B7
:1018700000F030B844380240002809DB00F01F02B5
:10188000012191404009800000F1E020C0F80011E2
:1018900070470000F0B40E4B1B680C46C3F30223E4
:1018A000C3F10705042D00D90425191D072901D20C
:1018B000002300E0DB1E012606FA05F1491E214047
:1018C00099409E40761E16403143F0BC01F0FCBFAB
:1018D0000CED00E0064900F0070208684FF6FF0330
:1018E000184040EA0220034A104308607047000095
:1018F0000CED00E00000FA052DE9F0470E4605006A
:1019000065D0DFF81481D8F80000F7B200F00700C6
:10191000B04207D288F80070D8F8000000F0070045
:10192000B04254D128683D4C810712D5400703D5F9
:10193000206840F4E05020602878000703D5206834
:1019400040F4604020602068A96820F0F00008435F
:1019500020602878C0072DD03049686808390128F0
:1019600012D0022813D0032811D009688907002952
:101970002DDA216821F0030101432160FFF7E6FE23
:10198000814641F2883A0EE009688903EFE7096869
:101990008901ECE7FFF7DAFEA0EB0901514502D916
:1019A0000320BDE8F0872068696800F00C00B0EB08
:1019B000810FEFD1D8F80010404601F00701B14285
:1019C00007D90770006800F00700B04201D001207D
:1019D000E7E72878400705D52068E96820F4E0505B
:1019E000084320602878000706D52068296920F47C
:1019F000604040EAC100206000F028F82168084AF1
:101A0000C1F30311515CC8400649086006480068EC
:101A1000FFF7F8FE0020C4E7003C0240083802400F
:101A2000903C00089C0000209400002004480549D8
:101A300000680968044AC1F38221515CC8407047BC
:101A40009C00002008380240A03C0008154810B552
:101A5000006810F00C02144813D04110042A0FD073
:101A6000082A0ED10F4C241F2268236802F03F027F
:101A70005B0207D52068C0F38810A0FB010106E0D7
:101A8000084610BD2168C1F38811A1FB00010023A5
:101A9000FEF798FB2168C1F30141491C4900B0FBE6
:101AA000F1F010BD083802400024F4002DE9F84F91
:101AB00004006ED02078DFF84C93C007A9F104052C
:101AC0004AD009F104000168C1F38101012908D05D
:101AD0000068C0F3810002280AD1D9F80000400252
:101AE00006D52868800337D560680028E1D033E048
:101AF0006068B0F5803F10D0B0F5A02F286810D0F6
:101B000020F480302860286820F4802028606068F5
:101B1000A8B1FFF71BFE06460DE0286840F48030B0
:101B2000F4E740F480202860F7E700BFFFF70EFEDF
:101B3000801B642873D828688003F7D50CE0FFF772
:101B400005FE064605E000BFFFF700FE801B642887
:101B5000F0D828688003F7D42078DFF8AC828007BB
:101B60004FF0000A3ED5A748001D016811F00C0F88
:101B700008D00068C0F3810002280BD1D9F800001A
:101B8000400207D42868800716D5E068012800D1F4
:101B900012E033E1E068B8B10120C8F80000FFF7B7
:101BA000D5FD064605E000BFFFF7D0FD801B0228EB
:101BB000C0D828688007F7D52868216920F0F80088
:101BC00040EAC10028600DE0C8F800A0FFF7BEFDA4
:101BD000064604E0FFF7BAFD801B02281FD82868DC
:101BE0008007F7D42078000722D5864F874861699F
:101BF000703771B101210160FFF7A8FD064604E0CE
:101C0000FFF7A4FD801B022809D838688007F7D5A4
:101C10000EE0C0F800A0FFF799FD064605E082E05F
:101C2000FFF794FD801B02287DD838688007F7D421
:101C30002078400768D5DFF8CCB100270BF13C0BCA
:101C4000DBF80000C0000BD4DBF8001041F080513D
:101C5000CBF80010DBF80000012700F08050009066
:101C60006B4E3068C00510D4306840F4807030602E
:101C7000FFF76CFD009005E0FFF768FD0099401A42
:101C8000022850D83068C005F6D55E4EA0686C3684
:101C900001280FD00528306810D020F001003060F6
:101CA000306820F004003060A068B8B1FFF74EFD46
:101CB00000900FE0306840F00100F4E740F00400CD
:101CC0003060F7E7FFF742FD0099411A41F2883092
:101CD000814266D830688007F4D50EE0FFF736FD04
:101CE000009007E0FFF732FD0099411A41F2883079
:101CF000814256D830688007F4D42FB1DBF8001049
:101D000021F08051CBF80010A069C8B33D49091DEE
:101D10000968C1F3810102294AD00228504607D040
:101D2000C8F8600000E03CE0FFF710FD04463BE02F
:101D30004746C8F86000FFF709FD064605E000BF0A
:101D4000FFF704FD801B02282BD828688001F7D4F8
:101D5000D4E907010843A16A2E4A490802EB014170
:101D6000626A41EA8211084394F82C1040EA01614A
:101D7000C9F8001001203866FFF7E8FC044606E0C9
:101D80003EE000BFFFF7E2FC001B022809D82868EC
:101D90008001F7D534E000BFFFF7D8FC001B022814
:101DA00002D90320BDE8F88F28688001F4D427E029
:101DB0000128F7D0D9F80000E26900F480019142CF
:101DC0001CD1226A00F03F01914217D147F6C07141
:101DD000626A0140B1EB821F10D1A26A4FF0FF335B
:101DE00000F4403103EB5202B1EB024F06D194F8FC
:101DF0002C1000F07060B0EB016F01D00120D1E732
:101E00000020CFE70438024000004742800E4742DE
:101E1000007000400000FFFF70B5040009D0606A48
:101E2000002540B125616561A56294F8510040B17B
:101E30000CE0012070BD6068B0F5827FF4D0E561F0
:101E4000F2E784F85050204600F044F8022084F86D
:101E500051002068016821F040010160A0882189BB
:101E600000F4827001F404410843A18901F4006187
:101E70000843217C01F002010843217D01F00101AA
:101E80000843218B01F400710843217F01F03801E0
:101E9000084394F8201001F080010843218D01F4DB
:101EA0000051084321680860A069042101EA10403C
:101EB00094F8241001F0100108432168486020685C
:101EC000C16921F40061C1616565012084F8510098
:101ED000002070BDF0B587B0044614216846FEF7B7
:101EE000A9F91C492068884232D11B4800240168A6
:101EF00041F480410160006800F48040059016487C
:101F00001038016841F004010160016801F004012A
:101F10000591016841F0020101600068022500F0AE
:101F2000020005900C20CDE9000502AA0326052732
:101F300082E8D00069460948FFF700FB6802CDE956
:101F4000000502AA694682E8D0000548FFF7F6FAC4
:101F500007B0F0BD003800404038024000080240A1
:101F6000000402402DE9F84F044690F85000002785
:101F70001D461646894601280DD04FF0010B84F806
:101F800050B0FFF7E3FB804694F85100BA460128B1
:101F900004D0022793E00220BDE8F88FB9F1000FCA
:101FA00073D0002E71D0032084F85100C4F854A0DF
:101FB000C4F83090A686E686C4F838A0A4F83CA001
:101FC000A4F83EA0C4F844A0C4F840A0A068B0F5AE
:101FD000004F09D12068016821F0400101602068AC
:101FE000016841F48041016020680168490603D41A
:101FF000016841F040010160E068B0F5006F606881
:1020000003D030B3012E24D041E008B1012E1CD101
:10201000206B21680088C86006E020688168890715
:1020200009D5216B0988C160206B801C2063E08E7C
:10203000401EE08609E0FFF789FBA0EB0800A842FC
:1020400002D3681C01D031E07DB3E08E0028E4D1DA
:1020500020E0206B21680078087306E02068816822
:10206000890709D5216B09780173206B401C206317
:10207000E08E401EE0860AE0FFF768FBA0EB080058
:10208000A84203D3681C02D010E017E06DB1E08EC7
:102090000028E3D142462946204601F01BF908B149
:1020A00020206065A06818B106E0FFE7032706E07E
:1020B0002068C16880680090606D00B1012784F8D5
:1020C00051B084F850A0384666E710B5401EB0F114
:1020D000807F01D3012010BD4FF0E02460610F210B
:1020E000601701F0F1FB0020A061072020610020B3
:1020F00010BD7047704710B590F83C20012A22D0DF
:10210000012280F83C20CA688C6822F44072224385
:102110004C6822F4806222430C6822F4006222435D
:102120000C6922F4805222434C6922F4005222436B
:10213000C969002322F480420A4301684A6480F896
:102140003C30002010BD022010BD000070B590F89A
:102150003C20012A32D0012480F83C40022280F841
:102160003D2003685A689D6822F070060A68324371
:102170005A60134B02689A4214D0B2F1804F11D0CA
:10218000104B9A420ED0104B9A420BD00F4B9A42F2
:1021900008D00F4B9A4205D00E4B9A4202D00E4BFC
:1021A0009A4204D1496825F080031943916080F870
:1021B0003D40002180F83C10084670BD022070BDF3
:1021C000000001400004004000080040000C0040F6
:1021D00000040140004001400018004010B5040018
:1021E00003D094F83D0010B107E0012010BD00209D
:1021F00084F83C00204600F01FF8022084F83D00DF
:10220000211D206801F058F9012084F8460084F867
:102210003E0084F83F0084F8400084F8410084F8D0
:10222000420084F8430084F8440084F8450084F8B0
:102230003D00002010BD000030B587B004461421D9
:102240006846FDF7F7FF246831480021844201D138
:1022500030482BE02F48001FB4F1804F26D02D4B83
:102260002D4D143B0222AC422AD1046844F00204F2
:102270000460006800F002000590186840F0020059
:102280001860186800F00200059022200090CDE947
:102290000121CDE9031269462048FFF74FF90022DA
:1022A00002211D20FFF7F6FA1D202DE0016841F004
:1022B00001010160006800F00100059007B030BD29
:1022C000174DAC42FAD1046844F00404046000687D
:1022D00000F004000590186840F0080018601868C5
:1022E00000F0080005904FF420400090CDE9012156
:1022F000CDE9031269460B48FFF720F900220221BD
:102300001E20FFF7C7FA1E20FFF7B6FAD6E7000037
:102310000000014044380240000400400004024034
:1023200000080040000C024090F83D10012901D047
:1023300001207047022180F83D100168CA6842F010
:102340000102CA6000681149884214D0B0F1804F80
:1023500011D00F4988420ED00E4988420BD00E4949
:10236000884208D00D49884205D00D49884202D0E4
:102370000C49884204D1816801F00701062903D085
:10238000016841F001010160002070470000014038
:102390000004004000080040000C00400004014020
:1023A000004001400018004070B5044690F83C0021
:1023B000012817D0012584F83C50022084F83D0004
:1023C0002068826822F0770222F47F4282600868E7
:1023D000502830D00DDC20284DD005DC98B31028D3
:1023E0003BD148E0022070BD302844D0402834D191
:1023F00039E0602828D0702806D0B0F5805F2CD056
:10240000B0F5005F29D10AE0CB68D1E9012120684D
:1024100001F0C3F82068816841F0770109E0CB68DA
:10242000D1E90121206801F0B8F82068816841F401
:102430008041816011E0CA684968206801F0C5F9EF
:102440005021206807E016E0CA684968206801F05A
:102450000DFA6021206801F0AAF884F83D500020B0
:1024600084F83C0070BDCA684968206801F0ADF985
:1024700040212068EFE7226801461046EBE70000A4
:1024800070B50646006841490025414C88423BD161
:10249000307F02281AD10421304600F0C9FBE061E8
:1024A00090B10021304600F0C3FB64212062484314
:1024B000E169B0FBF1F0A062FFF7B8FAE169400012
:1024C000B0FBF1F0606201E0A5626562307F082830
:1024D0001AD10C21304600F0ABFBE06190B108212D
:1024E000304600F0A5FB642120624843E169B0FB5F
:1024F000F1F02063FFF79AFAE1694000B0FBF1F0D8
:10250000E06201E02563E56222493068884238D103
:10251000307F02281AD10421304600F089FBE061A7
:1025200090B10021304600F083FB642120624843D3
:10253000E169B0FBF1F0A063FFF778FAE1694000D0
:10254000B0FBF1F0606301E0A5636563307F0828AC
:1025500017D10C21304600F06BFBE06190B10821EF
:10256000304600F065FB642120624843E169B0FB1E
:10257000F1F02064FFF75AFAE1694000B0FBF1F096
:10258000E06370BD2564E56370BD00000004004099
:1025900000000020000800402DE9F041054690F8B9
:1025A0003C000C46012836D0012085F83C008AB357
:1025B000042A42D02868082A51D0D4E90023E168CF
:1025C000066A26F480560662C669076A26F44076D3
:1025D00046EA03234FF6FF7606EA013123F47043FF
:1025E00019434FF4204627F4204306EA02321A43E7
:1025F000C16102622868C16921F44061C161286833
:10260000C169A26841EA0221C161002085F83C004D
:10261000BDE8F08101E00220FAE7D4E90012E368A6
:10262000286801F0E3F82868816921F00C018161D4
:1026300028688169A26811430FE0D4E90012E368B9
:10264000286801F025F92868816921F440618161D9
:1026500028688169A26841EA02218161D5E7D4E94D
:102660000027267B016A21F480710162C169036A37
:1026700021F00301394321F0F00731074FF42066C0
:1026800047EA116123F4206306EA02221A43C1617A
:1026900002622868C16921F00C01C1612868C16922
:1026A000A2681143B0E710B5040003D094F83D00D0
:1026B00010B107E0012010BD002084F83C00204646
:1026C00000F01EF8022084F83D00211D206800F073
:1026D000F3FE012084F8460084F83E0084F83F00B1
:1026E00084F8400084F8410084F8420084F84300F4
:1026F00084F8440084F8450084F83D00002010BDB3
:102700007047000010B5044651B104290DD00829C6
:1027100010D094F8410094F84520012811D10EE022
:1027200094F83E0094F84220F7E794F83F0094F8BC
:102730004320F2E794F8400094F84420EDE7012AA2
:1027400001D0012010BD022051B1042911D0082967
:1027500018D084F8410084F845000C291BD142E0D0
:1027600084F83E0084F842002068C26842F0020209
:1027700010E084F83F0084F843002068C26842F00B
:10278000040207E084F8400084F844002068C2682E
:1027900042F00802C2600122206800F0F1FE1449F4
:1027A0002068884214D0B0F1804F11D0114988427E
:1027B0000ED0114988420BD01049884208D01049E8
:1027C000884205D00F49884202D00F49884204D17F
:1027D000816801F00701062903D0016841F0010179
:1027E0000160002010BD2068C26842F01002D1E7ED
:1027F000000001400004004000080040000C0040C0
:1028000000040140004001400018004070B504463B
:10281000006801694FF00005C943890715D4C168F4
:10282000C943890711D4E91E01610120207720687E
:1028300080698007204602D0FFF722FE04E000F006
:10284000C3F8204600F052F9257720680169C94392
:10285000490717D4C168C943490713D46FF004016D
:102860000161022020772068806910F4407F2046B3
:1028700002D0FFF705FE04E000F0A6F8204600F0C5
:1028800035F9257720680169C943090716D4C1685D
:10289000C943090712D46FF00801016104202077B1
:1028A0002068C0698007204602D0FFF7E9FD04E0F8
:1028B00000F08AF8204600F019F9257720680169B0
:1028C000C943C90617D4C168C943C90613D46FF0F8
:1028D00010010161082020772068C06910F4407F52
:1028E000204602D0FFF7CCFD04E000F06DF8204652
:1028F00000F0FCF8257720680169C943C90708D1B1
:10290000C168C943C90704D1891E0161204600F08E
:1029100053F920680169C943090609D4C168C9434C
:10292000090605D46FF0800101612046FFF7E1FB45
:1029300020680169C943490609D4C168C9434906E9
:1029400005D46FF040010161204600F0B1F9206824
:102950000169C94389060BD4C168C943890607D4F4
:102960006FF0200101612046BDE87040FFF7C2BB57
:1029700070BD000010B586B0044614216846FDF70E
:1029800059FC0E492068884216D10D480021026882
:1029900042F010020260006800F0100005904FF451
:1029A000007000900220CDE901010120CDE9031063
:1029B00069460448FEF7C2FD06B010BD00000140A4
:1029C0003038024000100240704770B5044690F85D
:1029D0003C000D4601280AD0012084F83C0042B199
:1029E000042A18D0082A2AD00C2A4DD139E0022016
:1029F00070BD206800F0E4FD2068816941F00801A5
:102A000081612068816921F0040181612068816908
:102A10002A69114311E0206800F002FE20688169F4
:102A200041F4006181612068816921F480618161E4
:102A3000206881692A6941EA0221816124E02068D5
:102A400000F024FE2068C16941F00801C1612068DE
:102A5000C16921F00401C1612068C1692A6911437B
:102A600011E0206800F046FE2068C16941F4006171
:102A7000C1612068C16921F48061C1612068C169B8
:102A80002A6941EA0221C161002084F83C0070BD3E
:102A900010B5040003D094F83D0010B107E0012008
:102AA00010BD002084F83C00204600F01EF80220F3
:102AB00084F83D00211D206800F0FEFC012084F810
:102AC000460084F83E0084F83F0084F8400084F813
:102AD000410084F8420084F8430084F8440084F8FC
:102AE000450084F83D00002010BD7047704700008D
:102AF00010B50446022249B104290ED0082913D08A
:102B000094F84100012816D0012010BD94F83E0031
:102B10000128F9D184F83E200FE094F83F00012805
:102B2000F2D184F83F2008E094F840000128EBD16E
:102B300084F8402001E084F841200122206800F060
:102B40001FFD16492068164A884201D0904203D1E1
:102B5000436C43F4004343642068884213D0B0F1CF
:102B6000804F10D00F4988420DD00F4988420AD0BB
:102B70000E49884207D0904205D00D49884202D0C4
:102B80000C49884204D1816801F00701062903D06D
:102B9000016841F001010160002010BD000001400A
:102BA000000401400004004000080040000C004008
:102BB000004001400018004010B5184C1421607806
:102BC000B0FBF1F201FB1200B8B904F1140303F1F8
:102BD000360213491348FDF79DFF114904F1140310
:102BE00003F13E0218310F48FDF794FF0E48FEF73F
:102BF000E0FD02210D48FEF79CFD08482178523087
:102C000021B10521C170DC22827002E00021C17077
:102C1000817041716078401C607010BD0000002020
:102C2000AC000020D0010020F8010020000002408C
:102C30000246002041B1042909D008290AD00C29F4
:102C400001D11068006C70471068406B70471068C5
:102C5000806B70471068C06B704770B5044690F881
:102C60003C00012812D0012584F83C50022084F851
:102C70003D00204600F066FD01004FF0000007D047
:102C800084F83D5084F83C00012070BD022070BDE6
:102C90002168CA6822F04002CA602168CA6822F42A
:102CA0008042CA6084F83D5084F83C00002070BD2A
:102CB0007047FEE72DE9FF4100242A480094019463
:102CC000029427490394016001254FF440310561C6
:102CD000C0E90114057680F820402349C0E90A14B0
:102CE0000526C661C46080F830504561FDF7CFFD10
:102CF00008B1FDF720FD02270097CDE9015669468E
:102D00001848FDF71BFD08B1FDF715FD0325CDE9BA
:102D1000005769461348FDF711FD08B1FDF70BFD9B
:102D20000427CDE9007569460E48FDF707FD08B197
:102D3000FDF701FDCDE9004769460A48FDF7FEFCB5
:102D400008B1FDF7F8FC0E20CDE9000669460548FC
:102D5000FDF7F4FC002801D0FDF7EDFCBDE8FF8194
:102D600000200140280100200100000F0F4810B58D
:102D70000D4901600721416000214FF480228160EC
:102D8000C0E903124FF4A0024261017641768176D8
:102D9000C17601774177FEF724F9002803D0BDE81A
:102DA0001040FDF7C8BC10BD00640040D0010020F9
:102DB000054808B5016841F480010160006800F42D
:102DC0008000009008BD0000303802402DE9F04F2F
:102DD00087B014216846FDF72DFA434800240168A6
:102DE00041F010010160016801F0100105910168D6
:102DF00041F080010160016801F0800105910168E6
:102E000041F004010160016801F0040105910168CD
:102E100041F001010160016801F0010105910168C3
:102E200041F002010160016801F0020105910168B1
:102E300041F0080101600068DFF8B08000F0080090
:102E400005900022E2214046FEF77BFCDFF8A090CF
:102E5000002220214846FEF774FCDFF898A00022EB
:102E600001215046FEF76DFC0122DFF88CB0D7033C
:102E700039465846FEF765FC204E2C20CDE9000669
:102E80000125694602955846FEF758FB1020CDE90A
:102E900000060220029069465846FEF74FFBE220EA
:102EA0000090CDE90154694640460394FEF746FB85
:102EB00020200090CDE90154694648460394FEF76E
:102EC0003DFB0095CDE90154694650460394FEF759
:102ED00035FB0097CDE90154694658460394FEF747
:102EE0002DFB07B0BDE8F08F3038024000000240F3
:102EF00000080240000402400010024000003110AF
:102F0000094810B507490160032141604FF47A7107
:102F10008160FEF721FC002803D0BDE81040FDF7DA
:102F20000ABC10BD00300040F801002010B500229E
:102F300011463820FEF7AEFC3820FEF79DFC00223B
:102F400001210920FEF7A6FC0920FEF795FC0222CC
:102F500001210820FEF79EFC0820FEF78DFC0022D0
:102F600002211C20FEF796FC1C20FEF785FC0022A7
:102F700003211420FEF78EFC1420FEF77DFC0122B5
:102F800011460A20FEF786FC0A20FEF775FC002297
:102F900003211720FEF77EFCBDE810401720FEF746
:102FA0006BBC0000104810B50E4901604FF48271EF
:102FB0004160002102228160C0E9031201224261C6
:102FC000520282612822C0E90721416281620A21FE
:102FD000C162FEF721FF002803D0BDE81040FDF7D5
:102FE000AABB10BD003800400402002010B596B006
:102FF00000240F9410941194129413941C2108A887
:103000001494FDF717F920216846FDF713F92848B5
:103010002649016040F28521C0E90114FE21C0E982
:10302000031444618461FFF7D9F808B1FDF783FB0D
:103030004FF480500F900FA91D48FFF7B5F908B164
:10304000FDF779FB1A48FFF723FD08B1FDF773FB85
:10305000139413A916481494FFF778F808B1FDF7F4
:103060006AFB6020CDE908040A940B940C940D943B
:10307000002208A90E480E94FFF7A7FC08B1FDF73F
:103080005AFB00944FF40050CDE90440029401949F
:103090000394694606480794FFF72DF808B1FDF739
:1030A0004AFB0348FFF766FC16B010BD0000014064
:1030B0005C02002010B586B00024174800940194EB
:1030C0000294039404944FF08041059401604AF205
:1030D0001041C0E901140221C0E903148461FFF723
:1030E0007DF808B1FDF727FB4FF48050009069464A
:1030F0000948FFF759F908B1FDF71DFB2020CDE97C
:10310000040404A90448FFF721F8002801D0FDF7C2
:1031100012FB06B010BD0000A402002070B58CB0F8
:10312000142104A8FDF786F8002431480A94099474
:103130000094019402942D490394C0E900144FF6C1
:10314000FF71C0E9024104618461FFF747F808B1EB
:10315000FDF7F1FA2648FFF7A6FA08B1FDF7EBFAFA
:10316000042004906020CDE9050404A920480894B7
:10317000FFF773FD08B1FDF7DEFA099409A91C48B1
:103180000A94FEF7E3FF08B1FDF7D5FA0225009592
:10319000CDE901540022694615480394FFF7FCF974
:1031A00008B1FDF7C8FA0126CDE9004604226946B8
:1031B0000F48FFF7F1F908B1FDF7BDFA00950822B5
:1031C00069460B480195FFF7E7F908B1FDF7B3FA37
:1031D000CDE900460C2269460548FFF7DDF90028D5
:1031E00001D0FDF7A8FA0CB070BD0000000400404B
:1031F000EC02002070B58CB0142104A8FDF71AF879
:10320000002431480A9409940094019402942D49B1
:103210000394C0E900144FF6FF71C0E90241046154
:103220008461FEF7DBFF08B1FDF785FA2648FFF75A
:103230003AFA08B1FDF77FFA042004906020CDE946
:10324000050404A920480894FFF707FD08B1FDF71D
:1032500072FA099409A91C480A94FEF777FF08B18D
:10326000FDF769FA02250095CDE90154002269466F
:1032700015480394FFF790F908B1FDF75CFA0126B1
:10328000CDE90046042269460F48FFF785F908B1E9
:10329000FDF751FA0095082269460B480195FFF7A2
:1032A0007BF908B1FDF747FACDE900460C226946E3
:1032B0000548FFF771F9002801D0FDF73CFA0CB082
:1032C00070BD00000008004034030020FEE7FEE768
:1032D0007047000038B504461248134B0068B0FB35
:1032E000F3F04FF47A73584300906068B0F5827F32
:1032F0000DD10B46009200228021204600F016F8E6
:1033000070B1606D40F020006065032038BD00980A
:1033100030B1401E009020688068C0430006F6D59A
:10332000002038BD9C00002000366E012DE9F843D6
:103330001E46914688460446089DFEF707FA401B44
:10334000351AFEF703FA074625480068C0F3CB306C
:10335000684338E0701C37D0FEF7F8F9C01BA8426C
:1033600003D215B1009860B32CE02068416821F0C9
:10337000E00141606068B0F5827F0BD1A068B0F5D4
:10338000004F02D0B0F5806F04D12068016821F0B1
:1033900040010160A06AB0F5005F09D120680168B2
:1033A00021F4005101602068016841F4005101607E
:1033B000012084F85100002084F850000320BDE86B
:1033C000F8830025401E00902068816838EA0100DB
:1033D00004D000214945BDD10020F0E70121F9E7E3
:1033E0009C0000207047FEF7EBB9000030B593B0A9
:1033F00030216846FCF71EFF14210CA8FCF71AFFC9
:103400001E480024016841F080510160006800F00E
:10341000805011901A48016841F4804101600068B1
:10342000102100F4804011900A2000900120CDE985
:1034300003010225CDE905050820CDE90740A820B4
:10344000CDE9090504200B906846FEF72FFB08B173
:1034500072B6FEE70F20CDE90C054FF4A050CDE980
:103460000E404FF48050109005210CA8FEF744FA4E
:10347000002801D072B6FEE713B030BD40380240DC
:10348000007000400248016841F47001016070471B
:1034900088ED00E00148FFF7B9B90000A402002060
:1034A0000148FFF7B3B90000EC0200200148FFF724
:1034B000ADB9000034030020F0B50268254C264D5C
:1034C000264E274F274B4FF0804CA04209D0604535
:1034D00007D0A84205D0B04203D0B84201D09842EC
:1034E00004D122F0700E4A6842EA0E02A0421BD0BC
:1034F000604519D0A84217D0B04215D0B84213D0B9
:10350000984211D0184DA8420ED0184DA8420BD0A9
:10351000174DA84208D0174DA84205D0164DA84215
:1035200002D0164DA84203D122F44075CA682A433E
:103530004D6922F080022A4302608A68C2620A68EA
:103540008262A04201D0984201D109690163012140
:103550004161F0BD0000014000040040000800404F
:10356000000C0040000401400040014000440140C4
:103570000048014000180040001C004000200040AE
:1035800010B501F01F030121046A99408C430462C5
:10359000016A9A401143016210BD10B5846842EA85
:1035A000032224F47F440A432243826010BD8268D0
:1035B00022F070020A4342F0070181607047000068
:1035C000F0B5026A22F001020262036A426884696D
:1035D000124E24F073050C682C4323F002058B680F
:1035E0002B430D4DA84201D0B04205D123F008076E
:1035F000CB683B4323F00403A84201D0B04205D17D
:103600004D6922F4407215438A692A4342608461FD
:10361000496841630362F0BD0000014000040140BD
:10362000F0B5026A22F010020262026A43688469FD
:103630000D6824F4E64444EA05248D6822F0200253
:1036400042EA05120F4D104EA84201D0B04206D1F9
:10365000CF6822F0800242EA071222F04002A8421C
:1036600001D0B04207D14D6923F4406343EA85039A
:103670008D6943EA8503436084614968816302621E
:10368000F0BD00000000014000040140F0B5026AF6
:1036900022F480720262026A4368C46922F40072F2
:1036A00024F073050C68124E2C438D6842EA052203
:1036B0000E4DA84201D0B04206D1CF6822F400627C
:1036C00042EA072222F48062A84201D0B04207D128
:1036D0004D6923F4405343EA05138D6943EA05130A
:1036E0004360C4614968C1630262F0BD00000140EB
:1036F0000004014030B5026A22F480520262046A7A
:103700004268C3690D6823F4E64343EA05238D68E4
:1037100024F4005444EA0534084DA84202D0084D70
:10372000A84204D14D6922F4804242EA85124260E7
:10373000C36149680164046230BD000000000140BB
:103740000004014010B503689A6822F070044A68CA
:10375000224322F007040A6822439A604A6812F062
:103760000F0F30D11211082A2DD2DFE802F02C2CD5
:103770002C2C0B2127040B69D1E902210068FFF7EB
:103780000CFF20E00A68052A10D00268136A146A48
:1037900024F00104146202689469096924F0F004B9
:1037A00044EA01119161006803620CE0012010BD40
:1037B0000A698968006800F008F804E00A69896805
:1037C000006800F053F8002010BD10B5036A046AC9
:1037D00024F001040462846924F0F00444EA021431
:1037E00023F00A020A438461026210BD70B5046AC4
:1037F00024F0010404628469056A154EB04214D0B5
:10380000B0F1804F11D0134EB0420ED0124EB042E4
:103810000BD0124EB04208D0114EB04205D0114E1E
:10382000B04202D0104EB04203D124F0030414433E
:1038300001E044F001041A0724F0F00444EA1262A3
:1038400025F00A0301F00A0119438261016270BD8B
:10385000000001400004004000080040000C00404F
:1038600000040140004001400018004010B5036A08
:1038700023F0100303628369046A23F4704343EA6C
:10388000023224F0A00343EA01118261016210BDFB
:1038900030B5046A24F0100404628469056A24F4D3
:1038A000407444EA022222F470444FF6FF7202EAA6
:1038B00003322243A02425F0A00304EA0111194396
:1038C0008261016230BDFEE70907090E002804DBB2
:1038D00000F1E02080F80014704700F00F0000F1C4
:1038E000E02080F8141D704702E008C8121F08C1CC
:1038F000002AFAD170477047002001E001C1121F71
:10390000002AFBD1704710B50121312000F00AF8E0
:1039100000212D2000F006F80821BDE810402D20E0
:10392000AFF3008038B540F040008DF800000B4D3B
:103930008DF801104FF40044002221462846FDF77F
:1039400000FF6423022269460548FEF70BFB0122B3
:1039500021462846FDF7F5FE38BD00000010024064
:103960000402002010B51F4C40F6D270228882421B
:1039700005D86188814202D8A388834201D90120F9
:1039800010BD501AFCF761FC00EE100A9FED161BEB
:1039900021F0004110EE100A53EC112BFCF766FCED
:1039A00001D2022010BD20884FF47A63984205D8D6
:1039B0006188994202D8A2889A4201D9032010BD99
:1039C000B2F5487F0BD9084440F24161884204D9DE
:1039D000074901208870042010BD052010BD00207B
:1039E00010BD0000A00000200000000000409F402B
:1039F000000000202DE9F041FFF7B4FF1B4C012629
:103A00001B4F0025607206281CD2DFE800F0190366
:103A100003030D16012280213846FDF792FE6581D1
:103A2000A5812671E5700DE0012220213846FDF7C1
:103A300088FE6581A581A67007E06581A58101E00A
:103A400000F000F9A07800280ED00A4801884088CC
:103A50000844B0F5C87F07D2A5703846BDE8F041EC
:103A600000222021FDF76DBEBDE8F081000000209E
:103A700000000240A0000020FDF7AAFEFFF7B6FC00
:103A8000FFF7A4F9FFF794F9FFF714F9FFF76EF9C0
:103A9000FFF710FBFFF734FAFFF784FAFFF73EFB5E
:103AA000FFF7A8FBFFF7A2FAFFF740FA05225249F9
:103AB0005248FCF773FF5248FEF736FCFCF7B4FDA2
:103AC000FCF75EFD4F4D10212846FDF72DFE08B195
:103AD000012100E000214C4CA17121B101222021E3
:103AE0004A48FDF72EFE08212846FDF71DFE70B35B
:103AF0000020E071FFF707FF00214548FEF702FEB6
:103B000004214348FEF7FEFD08214148FEF7FAFD77
:103B10000C213F48FEF7F6FD00213E48FEF7F2FD7E
:103B200004213C48FEF7EEFD08213A48FEF7EAFD85
:103B30000C213848FEF7E6FD00213748FEF7D8FF94
:103B4000364D374E4FF47A78E07818B134E0FFE71D
:103B50000120CEE700276781A7813A464021304601
:103B6000FDF7EFFD002220213046FDF7EAFD276139
:103B7000214F4FF44879B888484503D3607908B19C
:103B8000207930B30020686320694045F3D30120D9
:103B9000E070322068636420FDF7A0FC00206863B9
:103BA0006420FDF79BFC64206863FDF797FC002010
:103BB0006863E0780028C7D0002280213046FDF7F6
:103BC000C0FD012240213046FDF7BBFDFFF712FF8B
:103BD000BAE7FDF7BBFDA061C8206863206904E077
:103BE000FDF7B4FDA169401A20614045CFD260794C
:103BF0000028C0D0F4E70000A00000202801002029
:103C0000A402002000100240000000200008024032
:103C1000EC020020340300205C0200200000014080
:103C20000000024030B504460398641AC51A6C437C
:103C3000511A94FBF1F1194489B2814200D8084627
:103C400030BD0000F8B50E4C4FF4AF6500952088EC
:103C500061880023084440F6D86740083A46194670
:103C6000FFF7E0FF074E00233A4670810095208859
:103C70006188084440081946FFF7D4FFB081F8BDB9
:103C8000A0000020000000200006101600061016FC
:103C900000000000000000000102030406070809FC
:103CA0000000000001020304C83C000800000020DE
:103CB000A0000000E8380008683D0008A0000020CF
:103CC000E0060000F83800080000000000000000D6
:103CD00000000000000000000000000000000000E4
:103CE00000000000000000000000000000000000D4
:103CF00000000000000000000000000000000000C4
:103D000000000000000000000000000000000000B3
:103D100000000000000000000000000000000000A3
:103D20000000000000000000000000000000000093
:103D30000000000000000000000000000000000083
:103D40000000000000000000000000000000000073
:103D50000000000000000000010000001000000052
:083D6000000000000024F40043
:040000050800018965
:00000001FF
