:020000040800F2
:10000000B809002029020008032D0008492600082D
:10001000012D000849050008D93200080000000041
:10002000000000000000000000000000072D000894
:100030007506000800000000052D0008092D0008C5
:10004000430200084302000843020008430200087C
:10005000430200084302000843020008430200086C
:10006000770600087D0600088306000843020008A2
:10007000430200084302000843020008430200084C
:10008000430200084302000843020008430200083C
:100090004D050008430200084302000889060008D5
:1000A000430200084302000843020008430200081C
:1000B000B52D0008C12D0008CD2D00084302000811
:1000C00043020008430200084302000843020008FC
:1000D00043020008430200084302000843020008EC
:1000E00043020008430200084302000843020008DC
:1000F00043020008430200084302000843020008CC
:1001000043020008430200084302000843020008BB
:1001100043020008430200084302000843020008AB
:10012000E105000843020008ED050008430200084D
:10013000430200084302000843020008430200088B
:10014000430200084302000843020008430200087B
:10015000430200084302000843020008430200086B
:10016000430200084302000843020008430200085B
:100170004302000843020008430200080000000098
:10018000430200084302000800F002F800F03CF8C7
:100190000AA090E8000C82448344AAF10107DA45E2
:1001A00001D100F031F8AFF2090EBAE80F0013F0F8
:1001B000010F18BFFB1A43F001031847B8310000C4
:1001C000D8310000103A24BF78C878C1FAD8520755
:1001D00024BF30C830C144BF04680C6070470000C1
:1001E0000023002400250026103A28BF78C1FBD840
:1001F000520728BF30C148BF0B6070471FB503F0DE
:10020000A3F81FBD10B510BD00F0CFF81146FFF7E1
:10021000F5FF03F073F800F0EDF803B4FFF7F2FF19
:1002200003BC00F0F5F80000094880470948004782
:10023000FEE7FEE7FEE7FEE7FEE7FEE7FEE7FEE796
:10024000FEE7FEE704480549054A064B70470000F3
:10025000A52D000889010008B8030020B809002076
:10026000B8050020B805002053EA020C00F06980B0
:100270002DE9F04B4FF00006002B1FBFB3FA83F5BA
:1002800003FA05F424FA05F65E4012BF1643B2FAEB
:1002900082F502FA05F4C5F120051EBF22FA05FC1D
:1002A00044EA0C04203556EA044C4FEA144418BFC3
:1002B000641C4FF000084FF00009904271EB030CF2
:1002C00039D3002919BFB1FA81F701FA07F6B0FA5C
:1002D00080F700FA07F6C7F120071EBF20FA07FCD7
:1002E00046EA0C062037B6FBF4FCA7EB0507103FE7
:1002F00007F01F0BCBF120060CFA0BFB2CFA06F6CD
:1003000044BFB3460026202FA4BF5E464FF0000B2B
:100310005BEA060C08BF4FF0010B19EB0B09ABFBB6
:10032000027C48EB0608C01B06FB02CC0BFB03CC8F
:1003300071EB0C01C1E70B46024641464846BDE859
:10034000F08B13B54FF000004FF00001AFF30080C9
:10035000BDE81C4070474FF0000200B513469446BC
:100360009646203922BFA0E80C50A0E80C50B1F10D
:100370002001BFF4F7AF090728BFA0E80C5048BF21
:100380000CC05DF804EB890028BF40F8042B08BFBF
:10039000704748BF20F8022B11F0804F18BF00F8BB
:1003A000012B7047704770477047754600F02CF876
:1003B000AE4605006946534620F00700854618B052
:1003C00020B5FFF73FFFBDE820404FF000064FF09B
:1003D00000074FF000084FF0000B21F00701AC467A
:1003E000ACE8C009ACE8C009ACE8C009ACE8C00999
:1003F0008D46704710B50446AFF300802046BDE837
:100400001040FFF70ABF0000004870475403002067
:1004100001491820ABBEFEE726000200704700002D
:10042000464910B54A6822F440324A604A68436837
:100430001A434A6001684A6822F480724A6001687F
:100440004A68036942EA03224A6001684A6822F066
:1004500040724A6001684A6883681A434A600168CA
:100460008A6822F400628A6001688A68C3681A4355
:100470008A60816A6FF07062D14201688A6822F0F6
:1004800070628A6001688A680CD0836A1A438A6045
:1004900001688A6822F040528A6001688A68C36AEB
:1004A0001A4301E022F040528A6001688A6822F013
:1004B00002028A6001688A68037E42EA43028A6017
:1004C00090F82010002901684A680FD042F40062B9
:1004D0004A6001684A6822F460424A6001684A68DA
:1004E000174C436A04EB43331A4301E022F40062E1
:1004F0004A600168CA6A22F47002CA620168CA6A64
:10050000838B104C04EB03531A43CA6201688A6858
:1005100022F400728A6001688A6890F8303042EAFA
:1005200043228A6001688A6822F480628A600168D6
:100530008A68406942EA8020886010BD002301403B
:1005400000E0FFFF0000F0FFFEE70000014800F0C0
:1005500048BB00000401002010B50D4800F016FD56
:1005600008B172B6FEE70B4970200122C1E9000212
:100570000020C86008230B61886008750649087070
:1005800048708870C8700A7148718871C87110BD50
:1005900004010020280000200800002000B58BB0D6
:1005A000002001210190029008910590CDE90601FB
:1005B0000490009003900E2009906946074800F0CF
:1005C00015FA08B172B6FEE70221044800F08EF970
:1005D000002801D072B6FEE70BB000BD0401002078
:1005E000014800F007BD0000A4000020014800F011
:1005F00001BD0000F402002001681823CAB2103ABD
:10060000B2FBF3F2054B6FF30901032A9B5CC36550
:1006100000D9091D81650846704700005233000863
:1006200010B5014600208B698A6A4FF0C07453B13F
:10063000B3F5005F15D072B1012A0CD0022A0AD09E
:10064000032A09D104E01AB1012A06D0022A03D1F3
:10065000C96AC90100D5012010BDC96AA142FAD0FA
:1006600010BD002AF7D0012AF2D0022AF3D0032AC3
:10067000F3D010BD7047042000F0FEBD082000F04C
:10068000FBBD102000F0F8BD202000F0F5BD72B6D3
:10069000FEE7000078B50024009490F83C20012A81
:1006A00019D0012280F83C200A6807230568092A2E
:1006B00013D9EE680A3A02EB420293409E43EE6081
:1006C0000B788A680A3B03EB43039A400368DD68B2
:1006D0002A43DA6010E0022078BD2E6902EB420264
:1006E00093409E432E610B788A6803EB43039A4044
:1006F00003681D692A431A614A681F23072A13D217
:1007000005686E6B521E02EB820293409E436E633D
:100710000B790A885B1E92B203EB83039A4003684D
:100720005D6B2A435A6327E005680D2A12D22E6BAF
:10073000D21F02EB820293409E432E630B790A88FC
:10074000DB1F92B203EB83039A4003681D6B2A43BD
:100750001A6311E0EE6A0D3A02EB820293409E4367
:10076000EE620B790A880D3B92B203EB83039A4049
:100770000368DD6A2A43DA62164B0568144A9D4213
:1007800006D10D68122D03D1556845F480055560DA
:1007900005689D4218D10B68102B01D0112B13D185
:1007A000536843F400035360096810290CD10A49C7
:1007B0000A4A0968B1FBF2F101EB8101490000E04E
:1007C000491E00910029FBD180F83C40002078BDF3
:1007D00000230140002001402400002040420F007F
:1007E00070B504004FF0000503D0206C002610B156
:1007F00007E0012070BD204600F01CF8666484F814
:100800003C60206CC00610D4206C20F4885040F06E
:10081000020020642046FFF703FE6664206C20F08F
:10082000020040F00100206400E0012584F83C60F3
:10083000284670BD70B586B0064614216846FFF79D
:100840008AFD24493068884242D123480025016846
:1008500041F48071016000681F4900F48070143910
:100860000590086840F004000860086800F0040083
:100870000590086840F0010008600868032400F053
:100880000100059013208DE831006946134800F0FF
:10089000FFFC1D208DE831006946114800F0F8FC8E
:1008A000114C1048C4E900050015A560C4E90350C7
:1008B000400060618000A0614011C4E90705204646
:1008C000656200F067FC08B1FFF7E1FEB463A66360
:1008D00006B070BD002001404438024000080240CC
:1008E0000000024010640240A400002090F8202084
:1008F000012A07D0022A05D0416A41F480214162D1
:1009000001207047006842690A4342610020704735
:10091000F0B590F820500468A468012D05D0022D90
:1009200003D0416A41F480215DE014F0406F01D1B1
:10093000E50055D5C4F30164022C03D9416A41F4A2
:10094000000150E00125A5401D608D684FF4C07383
:100950009DB1CE6835434E6845EAC605066803EB8F
:100960000417F5514FF4C275076805EB04150E69BD
:100970007E51097D012905D009E00E88CD6845EA40
:100980004655EBE701684E5946F480764E51117991
:10099000D579567941EA056195792D0445EA062510
:1009A00029434FF4C676056806EB0416A951117861
:1009B000D57841EA0561957852782D0445EA0222FE
:1009C00011434FF4C475026805EB041551510068DA
:1009D00003EB0411425842F0010242500020F0BDE6
:1009E000416A41F4001141620120F0BD10B590F858
:1009F0002020012A07D0022A05D0416A41F4802133
:100A00004162012010BD3B48D0F8002242F00102B3
:100A1000C0F80022D0F8002222F47C52C0F8002254
:100A2000D0F800224B6A42EA0322C0F800220A7D75
:100A300002F01F0301229A40D0F81C329343C0F801
:100A40001C32CB69B3B9D0F80C329343C0F80C32E6
:100A50008C894B6864F31F434C6900EBC404C4F8F1
:100A600040320C890B6864F31F434C6900EBC404EB
:100A7000C4F84432CB69012B16D1D0F80C321343A1
:100A8000C0F80C320C884B6864F31F434C6900EBD0
:100A9000C404C4F840320C89CB6864F31F434C692A
:100AA00000EBC404C4F844328B69002BD0F8043244
:100AB0000ED01343C0F804320B69002BD0F8143267
:100AC00008D01343C0F81432096A012904D008E0A1
:100AD0009343EFE79343F5E7D0F81C121143C0F8B6
:100AE0001C12D0F8001221F00101C0F80012002001
:100AF00010BD000000640040704730B590F8204001
:100B0000012C05D0022C03D0416A41F480215DE024
:100B10000468002955D02469A40754D04FF4D87430
:100B2000056804EB01142D5915F00405956005685E
:100B30002D594ED0ED08556005682C5904F002047B
:100B4000D4604FF4DA74056804EB01142D5905F0F4
:100B50000F05156105682D59C5F3072595610568D1
:100B60002C59240C54614FF4DC72046802EB01121E
:100B7000A4581C700468A458240A5C700468A45823
:100B8000240C9C700468A258120EDA704FF4DE72C6
:100B9000046802EB0112A4581C710468A458240ACA
:100BA0005C710468A458240C9C710468A258120E4D
:100BB000DA71006881B1016941F020010161002012
:100BC00030BDE468A8E7416A41F4001141620120A8
:100BD00030BD6D0D1560AFE7C16841F02001C16007
:100BE000EDE72DE9F05F0546006800244669D0F87E
:100BF00004908768D0F80CB0D0F810A0D0F8188016
:100C0000F10748D0F90714D001218160B80703D556
:100C1000284600F0E8F90CE0780702D54FF40064AC
:100C200007E0380702D54FF4805402E0284600F070
:100C3000D9F9F80516D529684FF480708860B80591
:100C400003D5284600F0D1F90CE0780502D544F42C
:100C5000005407E0380502D544F4804402E02846F9
:100C600000F0C2F9F80316D529684FF48030886087
:100C7000B80303D5284600F0BAF90CE0780302D592
:100C800044F4004407E0380302D544F4803402E021
:100C9000284600F0ABF9300707D55FEACB6004D5F2
:100CA0002968102044F40074C86070074FF00807EA
:100CB00007D55FEA0B7004D52868C760284600F0A6
:100CC0004FF9B00706D52868C068800702D02846CB
:100CD00000F048F9700607D55FEACA6004D52968B4
:100CE000102044F480640861B00607D55FEA0A70FA
:100CF00004D528680761284600F044F9F00606D5B7
:100D000028680069800702D0284600F03CF9B0034B
:100D100008D55FEAC96005D52968102048602846D3
:100D200000F032F9F00307D55FEA097004D52868AE
:100D30004760284600F05CF9300446D55FEA497008
:100D400040D5F00504D55FEAC87001D044F0010435
:100D5000B00504D55FEA887001D544F0020470053F
:100D600004D55FEA487001D544F00404300529D564
:100D700018F0700F26D008F07000402815D006DC5F
:100D8000102809D020280AD0302816D10AE050288F
:100D90000ED0602811D10EE044F008040DE044F0BC
:100DA00010040AE044F0200407E044F0400404E0AA
:100DB00044F0800401E044F480742868816921F0E3
:100DC00070018161296804204860002C05D0686AA0
:100DD000204368622846FFF78FFEBDE8F09F70B59C
:100DE000040003D094F8200010B104E0012070BD8D
:100DF000204600F081F82068016821F002010160BE
:100E000000F042FB0546052604E000F03DFB401BD8
:100E10000A2811D8206840688007F6D42068016845
:100E200041F00101016000F02FFB05460BE000F0EE
:100E30002BFB401B0A2806D9606A40F40030606230
:100E400084F82060D2E720684068C007EFD0207E99
:100E50000128206801683DD021F080010160607E9A
:100E600001282068016838D021F040010160A07E8F
:100E700001282068016833D021F020010160E07E64
:100E80000128206801682ED041F010010160207F08
:100E900001282068016829D021F008010160607FE5
:100EA00001282068016824D021F004010160D4E900
:100EB00002010843D4E90412114308436168491E42
:100EC00008432168C86100206062012084F8200086
:100ED000002070BD41F08001C0E741F04001C5E74E
:100EE00041F02001CAE721F01001CFE741F00801ED
:100EF000D4E741F00401D9E710B586B004461421C7
:100F00006846FFF728FA1349206888421FD1124823
:100F10000021026842F000720260006800F0007078
:100F200005900D481038026842F00802026000681F
:100F3000022200F0080005900320CDE90210CDE95F
:100F40000002092004906946044800F0A1F906B0A7
:100F500010BD00000064004040380240000C024018
:100F60007047000010B5054B054A0021FFF7C5FD8D
:100F7000002801D072B6FEE710BD0000100000206E
:100F800040000020704770477047000070B504466D
:100F900090F82000012804D0606A40F400206062CC
:100FA00018E0022084F820002068016821F0010187
:100FB000016000F069FA05460EE000BF00F064FA37
:100FC000401B0A2808D9606A40F40030606205209E
:100FD00084F82000012070BD20684068C007EDD172
:100FE000606270BD704770477047704770477047C8
:100FF000704700002DE9F84304464FF00009CDF892
:10100000009063484FF41651A56D0068B0FBF1F7EE
:101010002E6894F85C10082000FA01F131420FD0DC
:1010200021680A6852070BD50A6822F004020A6098
:1010300094F85C108840A860606D40F00100606525
:1010400094F85C104FF0010808FA01F0304208D023
:1010500021684969090604D5A860606D40F0020066
:10106000606594F85C1004208840304208D0216804
:101070000968890704D5A860606D40F004006065C8
:1010800094F85C1010208840304218D0216809681C
:10109000090714D5A86020680168490304D50068D1
:1010A000000308D5A16C07E00168C90503D40168F5
:1010B00021F008010160216C09B12046884794F8AD
:1010C0005C1020208840304231D021680968C90670
:1010D0002DD5A86094F8350005282068016806D051
:1010E000490347D5006800031DD4616C1CE021F062
:1010F000160101602068416921F080014161206C86
:1011000008B9A06C20B12068016821F008010160D5
:1011100094F85C103F208840A86084F8349084F8EC
:101120003580216D1FE0E16B09B120468847606D75
:1011300000282BD0606DC00714D0052084F835003E
:101140002068016821F0010101600098401C0090B6
:10115000B84203D820680068C007F6D184F83490FC
:1011600084F83580E16C002910D001B02046BDE83C
:10117000F04308470168C905D5D4016821F0100182
:10118000016084F8349084F83580CCE7BDE8F883BA
:10119000240000202DE9F041044600F075F90646D0
:1011A0005CB1002584F83450022084F835002068B2
:1011B000016821F0010101600DE00120BDE8F0812E
:1011C00000F062F9801B052805D920206065032006
:1011D00084F83500F2E720680068C007F0D1226883
:1011E000116820480140D4E901031843D4E90336CB
:1011F0003343184363691843A3691843E3691843E9
:10120000236A18430843616A042903D1D4E90B1304
:1012100019430843106020684069666A20F007019E
:1012200030460E43012704280CD1A06A0643E06A29
:1012300040B12046FFF7F4F920B14020606584F802
:101240003570BAE7206846612046FFF7D5F994F873
:101250005C203F2191408160656584F835700020F5
:10126000ACE700003F8010F0042802D101490120C2
:101270000870704700000020044910B50A68024257
:1012800002D00860FFF7F0FF10BD0000143C0140E1
:101290002DE9F84FDFF8B8A1002201250AF1040B6F
:1012A00003264FF00F090BF1040E00BF0B6805FA7F
:1012B00002F42340A3426FD10F7907F00307012FF7
:1012C00001D0022F16D187684FEA420806FA08FCBF
:1012D00027EA0C07D1F80CC00CFA08FC4CEA070C02
:1012E000C0F808C04768A7430C79C4F300149440C1
:1012F0003C4344600C79E443A4070AD0C4684FEA35
:10130000420C06FA0CF7BC438F6807FA0CF7274328
:10131000C7600C7904F00304022C12D1D40800EB4E
:10132000840CDCF820405707FF0E09FA07F824EA7E
:101330000804D1F8108008FA07F848EA0408CCF845
:10134000208004684FEA420C06FA0CF7BC430F7980
:1013500007F0030707FA0CF7274307604C68E4001F
:1013600070D53C4C276847F480472760246822F0FA
:10137000030704F480440094374C07EB040CDCF8BA
:10138000084897074FEA177809FA08F7BC43334F24
:10139000B84202D1002724E054E0314FB84201D1D5
:1013A00001271EE02F4FB84201D1022719E02E4F2E
:1013B000B84201D1032714E02C4FB84201D10427D1
:1013C0000FE02B4FB84201D105270AE0294FB84260
:1013D00001D1062705E0284FB84201D1072700E0D8
:1013E000082707FA08F72743CCF80878DAF800400E
:1013F0005746D1F804C09C435FEACC3C00D51C435F
:101400003C60DBF800405F46D1F804C09C435FEAD3
:101410008C3C00D51C433C60DEF800407746D1F898
:1014200004C09C435FEACC2C00D51C433C60084FB1
:101430000C373C68D1F804C09C435FEA8C2C00D583
:101440001C433C60521C102AFFF430AFBDE8F88FFB
:10145000003C01404438024000300140000002409E
:101460000004024000080240000C0240001002404C
:101470000014024000180240001C02400AB18161C1
:1014800070470904FBE700000148806870470000CE
:101490001800002070B5040011D021684CF6CC4033
:1014A0000860216845F255500860D4E900014160A8
:1014B0002168A0688860FFF7E7FF05460DE001207E
:1014C00070BD00BFFFF7E0FF401B302805D9206842
:1014D000C068800701D0032070BD2068C068800705
:1014E000F0D121684AF6AA200860002070BD0000F3
:1014F000024881680278114481607047180000201A
:101500000B4810B5016841F400710160016841F4B5
:1015100080610160016841F480710160032000F086
:1015200071F8002000F006F800F024F8002010BD4B
:10153000003C024070B50D4D04464FF47A71287896
:10154000B1FBF0F00A490968B1FBF0F000F0B2FB22
:1015500048B9102C07D200222146501E00F032F864
:1015600000206C6070BD012070BD000018000020DC
:10157000240000200B4882B0016841F480410160E2
:10158000006800F4804000900648001F016841F0A8
:1015900080510160006800F080500090052002B08A
:1015A00000F030B844380240002809DB00F01F0288
:1015B000012191404009800000F1E020C0F80011B5
:1015C00070470000F0B40E4B1B680C46C3F30223B7
:1015D000C3F10705042D00D90425191D072901D2DF
:1015E000002300E0DB1E012606FA05F1491E21401A
:1015F00099409E40761E16403143F0BC01F06DBE0E
:101600000CED00E0064900F0070208684FF6FF0302
:10161000184040EA0220034A104308607047000067
:101620000CED00E00000FA052DE9F0470E4605003C
:1016300065D0DFF81481D8F80000F7B200F0070099
:10164000B04207D288F80070D8F8000000F0070018
:10165000B04254D128683D4C810712D5400703D5CC
:10166000206840F4E05020602878000703D5206807
:1016700040F4604020602068A96820F0F000084332
:1016800020602878C0072DD03049686808390128C3
:1016900012D0022813D0032811D009688907002925
:1016A0002DDA216821F0030101432160FFF7ECFEF0
:1016B000814641F2883A0EE009688903EFE709683C
:1016C0008901ECE7FFF7E0FEA0EB0901514502D9E3
:1016D0000320BDE8F0872068696800F00C00B0EBDB
:1016E000810FEFD1D8F80010404601F00701B14258
:1016F00007D90770006800F00700B04201D0012050
:10170000E7E72878400705D52068E96820F4E0502D
:10171000084320602878000706D52068296920F44E
:10172000604040EAC100206000F038F82168084AB3
:10173000C1F30311515CC8400649086006480068BF
:10174000FFF7F8FE0020C4E7003C024008380240E2
:101750005A330008240000201C00002004480549DA
:1017600000680968044AC1F38221515CC84070478F
:1017700024000020083802406A3300080448054964
:1017800000680968044AC1F34231515CC84070479F
:1017900024000020083802406A330008154810B5BC
:1017A000006810F00C02144813D04110042A0FD026
:1017B000082A0ED10F4C241F2268236802F03F0232
:1017C0005B0207D52068C0F38810A0FB010106E08A
:1017D000084610BD2168C1F38811A1FB0001002358
:1017E000FEF742FD2168C1F30141491C4900B0FBED
:1017F000F1F010BD083802400024F4002DE9F84F44
:1018000004006ED02078DFF84C93C007A9F10405DE
:101810004AD009F104000168C1F38101012908D00F
:101820000068C0F3810002280AD1D9F80000400204
:1018300006D52868800337D560680028E1D033E0FA
:101840006068B0F5803F10D0B0F5A02F286810D0A8
:1018500020F480302860286820F4802028606068A8
:10186000A8B1FFF711FE06460DE0286840F480306D
:10187000F4E740F480202860F7E700BFFFF704FE9C
:10188000801B642873D828688003F7D50CE0FFF725
:10189000FBFD064605E000BFFFF7F6FD801B642850
:1018A000F0D828688003F7D42078DFF8AC8280076E
:1018B0004FF0000A3ED5A748001D016811F00C0F3B
:1018C00008D00068C0F3810002280BD1D9F80000CD
:1018D000400207D42868800716D5E068012800D1A7
:1018E00012E033E1E068B8B10120C8F80000FFF76A
:1018F000CBFD064605E000BFFFF7C6FD801B0228B2
:10190000C0D828688007F7D52868216920F0F8003A
:1019100040EAC10028600DE0C8F800A0FFF7B4FD60
:10192000064604E0FFF7B0FD801B02281FD8286898
:101930008007F7D42078000722D5864F8748616951
:10194000703771B101210160FFF79EFD064604E08A
:10195000FFF79AFD801B022809D838688007F7D561
:101960000EE0C0F800A0FFF78FFD064605E082E01C
:10197000FFF78AFD801B02287DD838688007F7D4DE
:101980002078400768D5DFF8CCB100270BF13C0B7D
:10199000DBF80000C0000BD4DBF8001041F08051F0
:1019A000CBF80010DBF80000012700F08050009019
:1019B0006B4E3068C00510D4306840F480703060E1
:1019C000FFF762FD009005E0FFF75EFD0099401A09
:1019D000022850D83068C005F6D55E4EA0686C3637
:1019E00001280FD00528306810D020F001003060A9
:1019F000306820F004003060A068B8B1FFF744FD03
:101A000000900FE0306840F00100F4E740F004007F
:101A10003060F7E7FFF738FD0099411A41F288304E
:101A2000814266D830688007F4D50EE0FFF72CFDC0
:101A3000009007E0FFF728FD0099411A41F2883035
:101A4000814256D830688007F4D42FB1DBF80010FB
:101A500021F08051CBF80010A069C8B33D49091DA1
:101A60000968C1F3810102294AD00228504607D0F3
:101A7000C8F8600000E03CE0FFF706FD04463BE0EC
:101A80004746C8F86000FFF7FFFC064605E000BFC8
:101A9000FFF7FAFC801B02282BD828688001F7D4B6
:101AA000D4E907010843A16A2E4A490802EB014123
:101AB000626A41EA8211084394F82C1040EA0161FD
:101AC000C9F8001001203866FFF7DEFC044606E086
:101AD0003EE000BFFFF7D8FC001B022809D82868A9
:101AE0008001F7D534E000BFFFF7CEFC001B0228D1
:101AF00002D90320BDE8F88F28688001F4D427E0DC
:101B00000128F7D0D9F80000E26900F48001914281
:101B10001CD1226A00F03F01914217D147F6C071F3
:101B2000626A0140B1EB821F10D1A26A4FF0FF330D
:101B300000F4403103EB5202B1EB024F06D194F8AE
:101B40002C1000F07060B0EB016F01D00120D1E7E4
:101B50000020CFE70438024000004742800E474291
:101B6000007000400000FFFF70B5040009D0606AFB
:101B7000002540B125616561A56294F8510040B12E
:101B80000CE0012070BD6068B0F5827FF4D0E561A3
:101B9000F2E784F85050204600F044F8022084F820
:101BA00051002068016821F040010160A08821896E
:101BB00000F4827001F404410843A18901F400613A
:101BC0000843217C01F002010843217D01F001015D
:101BD0000843218B01F400710843217F01F0380193
:101BE000084394F8201001F080010843218D01F48E
:101BF0000051084321680860A069042101EA1040EF
:101C000094F8241001F0100108432168486020680E
:101C1000C16921F40061C1616565012084F851004A
:101C2000002070BDF0B587B0044614216846FEF769
:101C300092FB1C492068884232D11B48002401686D
:101C400041F480410160006800F48040059016482E
:101C50001038016841F004010160016801F00401DD
:101C60000591016841F0020101600068022500F061
:101C7000020005900C20CDE9000502AA03260527E5
:101C800082E8D00069460948FFF702FB6802CDE907
:101C9000000502AA694682E8D0000548FFF7F8FA75
:101CA00007B0F0BD00380040403802400008024054
:101CB0000004024010B5401EB0F1807F01D3012026
:101CC00010BD4FF0E02460610F21601701F005FBAB
:101CD0000020A06107202061002010BD70477047E0
:101CE00010B590F83C20012A22D0012280F83C2037
:101CF000CA688C6822F4407222434C6822F48062E5
:101D000022430C6822F4006222430C6922F48052C0
:101D100022434C6922F400522243C969002322F471
:101D200080420A4301684A6480F83C30002010BDBC
:101D3000022010BD70B590F83C20012A32D0012459
:101D400080F83C40022280F83D2003685A689D6874
:101D500022F070060A6832435A60134B02689A42B6
:101D600014D0B2F1804F11D0104B9A420ED0104BCC
:101D70009A420BD00F4B9A4208D00F4B9A4205D093
:101D80000E4B9A4202D00E4B9A4204D1496825F07C
:101D900080031943916080F83D40002180F83C1099
:101DA000084670BD022070BD0000014000040040E4
:101DB00000080040000C00400004014000400140C9
:101DC0000018004010B5040003D094F83D0010B195
:101DD00007E0012010BD002084F83C00204600F000
:101DE0001FF8022084F83D00211D206800F0F4FF58
:101DF000012084F8460084F83E0084F83F0084F80F
:101E0000400084F8410084F8420084F8430084F8DC
:101E1000440084F8450084F83D00002010BD000017
:101E200030B587B0044614216846FEF794FA24685A
:101E300031480021844201D130482BE02F48001F57
:101E4000B4F1804F26D02D4B2D4D143B0222AC42D5
:101E50002AD1046844F002040460006800F0020023
:101E60000590186840F002001860186800F0020041
:101E7000059022200090CDE90121CDE903126946A9
:101E80002048FFF705FA002202211D20FFF79AFBE8
:101E90001D202DE0016841F001010160006800F0A3
:101EA0000100059007B030BD174DAC42FAD104686F
:101EB00044F004040460006800F004000590186811
:101EC00040F008001860186800F0080005904FF412
:101ED00020400090CDE90121CDE9031269460B486D
:101EE000FFF7D6F9002202211E20FFF76BFB1E2010
:101EF000FFF75AFBD6E700000000014044380240DB
:101F0000000400400004024000080040000C0240B1
:101F100090F83D10012901D001207047022180F87E
:101F20003D100168CA6842F00102CA6000681149A8
:101F3000884214D0B0F1804F11D00F4988420ED0A2
:101F40000E4988420BD00E49884208D00D4988427C
:101F500005D00D49884202D00C49884204D18168DD
:101F600001F00701062903D0016841F00101016079
:101F700000207047000001400004004000080040BD
:101F8000000C0040000401400040014000180040E7
:101F900070B5044690F83C00012817D0012584F85C
:101FA0003C50022084F83D002068826822F07702CD
:101FB00022F47F4282600868502830D00DDC20284F
:101FC0004DD005DC98B310283BD148E0022070BD0D
:101FD000302844D0402834D139E0602828D07028F7
:101FE00006D0B0F5805F2CD0B0F5005F29D10AE0B3
:101FF000CB68D1E90121206800F052FF2068816898
:1020000041F0770109E0CB68D1E90121206800F0B7
:1020100047FF2068816841F48041816011E0CA680F
:102020004968206801F053F85021206807E016E065
:10203000CA684968206801F09BF86021206800F0B8
:1020400039FF84F83D50002084F83C0070BDCA6818
:102050004968206801F03BF840212068EFE72268DA
:1020600001461046EBE770472DE9F041054690F830
:102070003C000C46012836D0012085F83C008AB38C
:10208000042A42D02868082A51D0D4E90023E16804
:10209000066A26F480560662C669076A26F4407608
:1020A00046EA03234FF6FF7606EA013123F4704334
:1020B00019434FF4204627F4204306EA02321A431C
:1020C000C16102622868C16921F44061C161286868
:1020D000C169A26841EA0221C161002085F83C0083
:1020E000BDE8F08101E00220FAE7D4E90012E368DC
:1020F000286800F0FDFF2868816921F00C018161EA
:1021000028688169A26811430FE0D4E90012E368EE
:10211000286801F03FF82868816921F440618161F5
:1021200028688169A26841EA02218161D5E7D4E982
:102130000027267B016A21F480710162C169036A6C
:1021400021F00301394321F0F00731074FF42066F5
:1021500047EA116123F4206306EA02221A43C161AF
:1021600002622868C16921F00C01C1612868C16957
:10217000A2681143B0E710B5040003D094F83D0005
:1021800010B107E0012010BD002084F83C0020467B
:1021900000F01EF8022084F83D00211D206800F0A8
:1021A0001BFE012084F8460084F83E0084F83F00BE
:1021B00084F8400084F8410084F8420084F8430029
:1021C00084F8440084F8450084F83D00002010BDE8
:1021D000704770B50446006801694FF00005C943B7
:1021E000890715D4C168C943890711D4E91E016163
:1021F00001202077206880698007204602D0FFF701
:1022000032FF04E000F0C2F8204600F051F92577D3
:1022100020680169C943490717D4C168C943490700
:1022200013D46FF0040101610220207720688069D7
:1022300010F4407F204602D0FFF715FF04E000F0C5
:10224000A5F8204600F034F9257720680169C943D4
:10225000090716D4C168C943090712D46FF00801F1
:102260000161042020772068C0698007204602D0E1
:10227000FFF7F9FE04E000F089F8204600F018F9B5
:10228000257720680169C943C90617D4C168C943C5
:10229000C90613D46FF0100101610820207720686F
:1022A000C06910F4407F204602D0FFF7DCFE04E056
:1022B00000F06CF8204600F0FBF8257720680169F3
:1022C000C943C90708D1C168C943C90704D1891ED8
:1022D0000161204600F0EEF820680169C943090653
:1022E00009D4C168C943090605D46FF080010161B2
:1022F0002046FFF7F3FC20680169C943490609D469
:10230000C168C943490605D46FF040010161204608
:1023100000F017F920680169C94389060BD4C16828
:10232000C943890607D46FF0200101612046BDE84A
:102330007040FFF7D4BC70BD10B586B004461421C0
:102340006846FEF708F80E492068884216D10D4805
:102350000021026842F010020260006800F01000E4
:1023600005904FF4007000900220CDE9010101209A
:10237000CDE9031069460448FEF78AFF06B010BD98
:10238000000001403038024000100240704770B534
:10239000044690F83C000D4601280AD0012084F83C
:1023A0003C0042B1042A18D0082A2AD00C2A4DD168
:1023B00039E0022070BD206800F084FD206881694A
:1023C00041F0080181612068816921F00401816187
:1023D000206881692A69114311E0206800F0A2FD9C
:1023E0002068816941F4006181612068816921F47C
:1023F00080618161206881692A6941EA02218161E5
:1024000024E0206800F0C4FD2068C16941F00801A3
:10241000C1612068C16921F00401C1612068C169FE
:102420002A69114311E0206800F0E6FD2068C169C7
:1024300041F40061C1612068C16921F48061C1611A
:102440002068C1692A6941EA0221C161002084F83B
:102450003C0070BD10B5040003D094F83D0010B1ED
:1024600007E0012010BD002084F83C00204600F069
:102470001EF8022084F83D00211D206800F0ACFC0D
:10248000012084F8460084F83E0084F83F0084F878
:10249000400084F8410084F8420084F8430084F846
:1024A000440084F8450084F83D00002010BD7047CA
:1024B000704700000A4B10B51A1D0A490A48FEF77A
:1024C00027FA0748001F0178083021B10521C170A3
:1024D000DC22827002E00021C1708170417110BD68
:1024E00004000020280000200401002070B50446EC
:1024F00090F83C00012812D0012584F83C500220BD
:1025000084F83D00204600F09FFD01004FF00000E0
:1025100007D084F83D5084F83C00012070BD0220B3
:1025200070BD2168CA6822F04002CA602168CA688A
:1025300022F48042CA6084F83D5084F83C000020B8
:1025400070BD704770B5040004D094F83D000025BC
:1025500010B106E0012070BD84F83C50204600F028
:1025600023F8242084F83D002068C16821F400513C
:10257000C160204600F02AFE2068016921F49041E4
:1025800001612068416921F02A0141612068C16828
:1025900041F40051C1602564202084F83D0084F896
:1025A0003E00002070BD000070B586B006461421C4
:1025B0006846FDF7D0FE1F493068884238D11E4872
:1025C0000025016841F010010160006800F0100072
:1025D000059019481438016841F001010160006854
:1025E000694600F0010005904FF4C06000900220A1
:1025F000CDE9010503200390072004900F48FEF762
:1026000047FE104C0E4820604FF00060C4E9010501
:102610004014C4E903506561A561E5612562204667
:102620006562FEF7B7FD08B1FEF731F8B463A66343
:1026300006B070BD00100140443802400000024066
:1026400040640240F4020020FEE700002DE9FF4153
:102650004FF000083748CDF80080CDF80480CDF861
:102660000880334ACDF80C80026001244FF44032D8
:102670000461C0E90128047680F820802E4AC0E970
:102680000A280725C0F80C80C56180F830404461F5
:10269000FEF7A6F808B1FDF7FAFF0226CDE90064BF
:1026A0000524694623480294FDF7F4FF08B1FDF7BD
:1026B000EEFF0327CDE9007669461E48FDF7EAFFE5
:1026C00008B1FDF7E4FF042669461A48CDE9006722
:1026D000FDF7E0FF08B1FDF7DAFFCDE900866946B6
:1026E0001448FDF7D7FF08B1FDF7D1FF0E20CDE963
:1026F000000469460F48FDF7CDFF08B1FDF7C7FF9D
:102700000A2000900620019069460A48FDF7C2FFA2
:1027100008B1FDF7BCFF0B20CDE90005694605486F
:10272000FDF7B8FF002801D0FDF7B1FFBDE8FF813C
:10273000002001405C0000200100000F0F4810B590
:102740000D4901600721416000214FF48022816022
:10275000C0E903124FF4A00242610176417681760E
:10276000C17601774177FEF73AFB002803D0BDE838
:102770001040FDF78CBF10BD006400400401002034
:10278000094808B5016841F4800101600068002231
:1027900000F48000009011463A20FEF713FFBDE8D8
:1027A00008403A20FEF700BF303802402DE9F047DC
:1027B00086B014216846FDF7CEFD4E48002401681E
:1027C00041F010010160016801F0100105910168FC
:1027D00041F080010160016801F08001059101680C
:1027E00041F004010160016801F0040105910168F4
:1027F00041F001010160016801F0010105910168EA
:1028000041F002010160016801F0020105910168D7
:1028100041F0080101600068374F00F008000590A2
:102820000022E2213846FEF729FEDFF8D0800022A0
:1028300020214046FEF722FEDFF8C490002201214D
:102840004846FEF71BFEDFF8BCA000224FF4804193
:102850005046FEF713FE0122D1035046FEF70EFE4E
:10286000294E2C20CDE900060125694602955046E7
:10287000FEF70EFD1020CDE9000602200290694609
:102880005046FEF705FDE2200090CDE9015469466F
:1028900038460394FEF7FCFC20200090CDE901545B
:1028A000694640460394FEF7F3FC0095CDE90154D8
:1028B000694648460394FEF7EBFCA802CDE9000404
:1028C000694650460294FEF7E3FC4FF44040009006
:1028D000CDE90154694650460394FEF7D9FC002225
:1028E00001210820FEF76EFE0820FEF75DFE06B00F
:1028F000BDE8F08730380240000002400008024086
:10290000000402400010024000003110094810B5D8
:1029100007490160032141604FF47A718160FEF73D
:10292000B9FD002803D0BDE81040FDF7B0BE10BDD2
:10293000003000402C01002010B500221146382044
:10294000FEF740FE3820FEF72FFE0022012109206D
:10295000FEF738FE0920FEF727FE002202211C2088
:10296000FEF730FE1C20FEF71FFE0022032114207C
:10297000FEF728FE1420FEF717FE012211460A205A
:10298000FEF720FE0A20FEF70FFE0022032117208B
:10299000FEF718FEBDE810401720FEF705BE000048
:1029A000104810B50E4901604FF48271416000215A
:1029B00002228160C0E90312012242615202826157
:1029C0002822C0E90721416281620A21C162FFF722
:1029D000CBF8002803D0BDE81040FDF758BE10BD6D
:1029E000003800403801002010B596B000240F9444
:1029F00010941194129413941C2108A81494FDF7B8
:102A0000AAFC20216846FDF7A6FC2848264901605B
:102A100040F28521C0E90114FE21C0E9031444619C
:102A20008461FFF7CFF908B1FDF731FE4FF4805014
:102A30000F900FA91D48FFF7ABFA08B1FDF727FE6D
:102A40001A48FFF707FD08B1FDF721FE139413A9FB
:102A500016481494FFF76EF908B1FDF718FE6020D0
:102A6000CDE908040A940B940C940D94002208A953
:102A70000E480E94FFF78BFC08B1FDF708FE00949A
:102A80004FF40050CDE90440029401940394694648
:102A900006480794FFF724F908B1FDF7F8FD03484D
:102AA000FFF74AFC16B010BD000001409001002065
:102AB00010B586B000241748009401940294039442
:102AC00004944FF08041059401604AF21041C0E93E
:102AD00001146421C0E903148461FFF773F908B19C
:102AE000FDF7D5FD4FF48050009069460948FFF787
:102AF0004FFA08B1FDF7CBFD2020CDE9040404A96D
:102B00000448FFF717F9002801D0FDF7C0FD06B013
:102B100010BD0000D801002070B58CB0142104A8AD
:102B2000FDF719FC002431480A940994009401949B
:102B300002942D490394C0E900144FF6FF71C0E9D7
:102B4000024104618461FFF73DF908B1FDF79FFD83
:102B50002648FFF710FB08B1FDF799FD042004900B
:102B60006020CDE9050404A920480894FFF7BEFCC5
:102B700008B1FDF78CFD099409A91C480A94FFF7D8
:102B8000D9F808B1FDF783FD02250095CDE9015480
:102B90000022694615480394FFF766FA08B1FDF76D
:102BA00076FD0126CDE90046042269460F48FFF76D
:102BB0005BFA08B1FDF76BFD0095082269460B48EA
:102BC0000195FFF751FA08B1FDF761FDCDE9004627
:102BD0000C2269460548FFF747FA002801D0FDF7A7
:102BE00056FD0CB070BD0000000400402002002023
:102BF00070B58CB0142104A8FDF7ADFB002431485A
:102C00000A9409940094019402942D490394C0E914
:102C100000144FF6FF71C0E9024104618461FFF7BF
:102C2000D1F808B1FDF733FD2648FFF7A4FA08B143
:102C3000FDF72DFD042004906020CDE9050404A9D2
:102C400020480894FFF752FC08B1FDF720FD0994D5
:102C500009A91C480A94FFF76DF808B1FDF717FDA4
:102C600002250095CDE901540022694615480394D8
:102C7000FFF7FAF908B1FDF70AFD0126CDE9004694
:102C8000042269460F48FFF7EFF908B1FDF7FFFC92
:102C90000095082269460B480195FFF7E5F908B150
:102CA000FDF7F5FCCDE900460C2269460548FFF723
:102CB000DBF9002801D0FDF7EAFC0CB070BD000084
:102CC00000080040680200200C4810B50A49016065
:102CD0004FF4E1314160002181600C22C160C0E904
:102CE00004128161C161FFF72DFC002803D0BDE80B
:102CF0001040FDF7CCBC10BD00100140B002002018
:102D0000FEE7FEE770477047FEF7F2BB30B593B0C1
:102D100030216846FDF71FFB14210CA8FDF71BFBB3
:102D20001E480024016841F080510160006800F0F5
:102D3000805011901A48016841F480410160006898
:102D4000102100F4804011900A2000900120CDE96C
:102D500003010225CDE905050820CDE90740A8209B
:102D6000CDE9090504200B906846FEF747FD08B140
:102D700072B6FEE70F20CDE90C054FF4A050CDE967
:102D80000E404FF48050109005210CA8FEF74CFC2B
:102D9000002801D072B6FEE713B030BD40380240C3
:102DA000007000400248016841F470010160704702
:102DB00088ED00E00148FFF70CBA0000D8010020C0
:102DC0000148FFF706BA0000200200200148FFF783
:102DD00000BA000068020020F0B50268254C264DBC
:102DE000264E274F274B4FF0804CA04209D060451C
:102DF00007D0A84205D0B04203D0B84201D09842D3
:102E000004D122F0700E4A6842EA0E02A0421BD0A2
:102E1000604519D0A84217D0B04215D0B84213D09F
:102E2000984211D0184DA8420ED0184DA8420BD090
:102E3000174DA84208D0174DA84205D0164DA842FC
:102E400002D0164DA84203D122F44075CA682A4325
:102E50004D6922F080022A4302608A68C2620A68D1
:102E60008262A04201D0984201D109690163012127
:102E70004161F0BD00000140000400400008004036
:102E8000000C0040000401400040014000440140AB
:102E90000048014000180040001C00400020004095
:102EA00010B5846842EA032224F47F440A43224393
:102EB000826010BD826822F070020A4342F007016E
:102EC00081607047F0B5026A22F001020262036A73
:102ED00042688469124E24F073050C682C4323F079
:102EE00002058B682B430D4DA84201D0B04205D19D
:102EF00023F00807CB683B4323F00403A84201D02A
:102F0000B04205D14D6922F4407215438A692A43C3
:102F100042608461496841630362F0BD0000014082
:102F200000040140F0B5026A22F010020262026A57
:102F3000436884690D6824F4E64444EA05248D68F6
:102F400022F0200242EA05120F4D104EA84201D095
:102F5000B04206D1CF6822F0800242EA071222F086
:102F60004002A84201D0B04207D14D6923F440632A
:102F700043EA85038D6943EA8503436084614968B8
:102F800081630262F0BD00000000014000040140C6
:102F9000F0B5026A22F480720262026A4368C46970
:102FA00022F4007224F073050C68124E2C438D68D5
:102FB00042EA05220E4DA84201D0B04206D1CF68A8
:102FC00022F4006242EA072222F48062A84201D081
:102FD000B04207D14D6923F4405343EA05138D698C
:102FE00043EA05134360C4614968C1630262F0BDEE
:102FF000000001400004014030B5026A22F4805212
:103000000262046A4268C3690D6823F4E64343EA36
:1030100005238D6824F4005444EA0534084DA84281
:1030200002D0084DA84204D14D6922F4804242EA00
:1030300085124260C36149680164046230BD0000CA
:10304000000001400004014010B503689A6822F0B6
:1030500070044A68224322F007040A6822439A60F7
:103060004A6812F00F0F30D11211082A2DD2DFE872
:1030700002F02C2C2C2C0B2127040B69D1E9022106
:103080000068FFF70DFF20E00A68052A10D00268EB
:10309000136A146A24F001041462026894690969CD
:1030A00024F0F00444EA01119161006803620CE02D
:1030B000012010BD0A698968006800F008F804E082
:1030C0000A698968006800F053F8002010BD10B547
:1030D000036A046A24F001040462846924F0F004A1
:1030E00044EA021423F00A020A438461026210BD1A
:1030F00070B5046A24F0010404628469056A154EFF
:10310000B04214D0B0F1804F11D0134EB0420ED067
:10311000124EB0420BD0124EB04208D0114EB04207
:1031200005D0114EB04202D0104EB04203D124F06F
:103130000304144301E044F001041A0724F0F004EE
:1031400044EA126225F00A0301F00A011943826180
:10315000016270BD00000140000400400008004012
:10316000000C0040000401400040014000180040F5
:1031700010B5036A23F0100303628369046A23F421
:10318000704343EA023224F0A00343EA0111826152
:10319000016210BD30B5046A24F010040462846931
:1031A000056A24F4407444EA022222F470444FF683
:1031B000FF7202EA03322243A02425F0A00304EAAE
:1031C000011119438261016230BD000070B50446EF
:1031D00000680169E26821F44051114301612169ED
:1031E000A068E26908436169114308432168CA681D
:1031F00049F20C639A430243CA6020684169A2699C
:1032000021F440711143416131492068884202D064
:103210003049884202D1FEF7B1FA01E0FEF79EFA8A
:10322000E2690023192164253226B2F5004F626855
:1032300028D0A0FB0101930F9200FDF715F801467D
:10324000B0FBF5F06FF01802504301EB800006EB85
:103250000010B0FBF5F000F0F002B1FBF5F002EB6E
:103260000012B1FBF5F06FF01803584301EB80003A
:1032700006EB0010B0FBF5F000F00F0021681044E1
:10328000886070BDA0FB010192185B41FCF7ECFF68
:103290000146B0FBF5F00201B1FBF5F06FF0180349
:1032A000584301EB800006EBC000B0FBF5F000F0E6
:1032B000F80002EB4002B1FBF5F0584301EB80004F
:1032C00006EBC000B0FBF5F000F00700D6E7000009
:1032D0000010014000140140FEE70907090E002814
:1032E00004DB00F1E02080F80014704700F00F00CC
:1032F00000F1E02080F8141D70470000FEF700F98F
:10330000FFF704FDFFF752FAFFF73AFAFFF79EF9CD
:10331000FFF714FAFFF7CCFBFFF7F8FAFFF740FBD3
:10332000FFF7FAFBFFF764FCFFF75EFBFFF7CCFC4F
:10333000FFF702FB0348FEF7EBFDFDF72FF9FDF762
:103340000BF9FEE7D80100204FF04070E1EE100AC3
:10335000704700061016000610160000000000005E
:103360000000010203040607080900000000010232
:10337000030400009433000800000020280000002F
:10338000C4010008BC330008280000209009000098
:10339000E001000800000000000000000000000044
:1033A000000000000000000000000000010000001C
:0C33B00010000000000000000024F400E9
:040000050800018965
:00000001FF
