:020000040800F2
:10000000000B002029020008D33B00080935000836
:10001000D13B0008D505000835430008000000006A
:10002000000000000000000000000000453D000846
:100030008D07000800000000D53B0008473D000880
:10004000430200084302000843020008430200087C
:100050004302000843020008430200088F0700081B
:10006000950700089B070008A10700084302000845
:10007000430200084302000843020008430200084C
:10008000430200084302000843020008430200083C
:10009000D90500084302000843020008A70700082A
:1000A000430200084302000843020008430200081C
:1000B000F53D0008013E00080D3E0008430200081F
:1000C00043020008430200084302000843020008FC
:1000D00043020008430200084302000843020008EC
:1000E00043020008430200084302000843020008DC
:1000F00043020008430200084302000843020008CC
:1001000043020008430200084302000843020008BB
:1001100043020008430200084302000843020008AB
:10012000D106000843020008DD060008430200086B
:10013000430200084302000843020008430200088B
:10014000430200084302000843020008430200087B
:10015000430200084302000843020008430200086B
:10016000430200084302000843020008430200085B
:100170004302000843020008430200080000000098
:10018000430200084302000800F002F800F03CF8C7
:100190000AA090E8000C82448344AAF10107DA45E2
:1001A00001D100F031F8AFF2090EBAE80F0013F0F8
:1001B000010F18BFFB1A43F001031847F05200006B
:1001C00010530000103A24BF78C878C1FAD85207FB
:1001D00024BF30C830C144BF04680C6070470000C1
:1001E0000023002400250026103A28BF78C1FBD840
:1001F000520728BF30C148BF0B6070471FB505F0DC
:100200003BF91FBD10B510BD00F0CFF81146FFF748
:10021000F5FF04F099FA00F0EDF803B4FFF7F2FFF0
:1002200003BC00F0F5F80000094880470948004782
:10023000FEE7FEE7FEE7FEE7FEE7FEE7FEE7FEE796
:10024000FEE7FEE704480549054A064B70470000F3
:10025000E53D00088901000800050020000B002092
:10026000000700200007002053EA020C00F069801C
:100270002DE9F04B4FF00006002B1FBFB3FA83F5BA
:1002800003FA05F424FA05F65E4012BF1643B2FAEB
:1002900082F502FA05F4C5F120051EBF22FA05FC1D
:1002A00044EA0C04203556EA044C4FEA144418BFC3
:1002B000641C4FF000084FF00009904271EB030CF2
:1002C00039D3002919BFB1FA81F701FA07F6B0FA5C
:1002D00080F700FA07F6C7F120071EBF20FA07FCD7
:1002E00046EA0C062037B6FBF4FCA7EB0507103FE7
:1002F00007F01F0BCBF120060CFA0BFB2CFA06F6CD
:1003000044BFB3460026202FA4BF5E464FF0000B2B
:100310005BEA060C08BF4FF0010B19EB0B09ABFBB6
:10032000027C48EB0608C01B06FB02CC0BFB03CC8F
:1003300071EB0C01C1E70B46024641464846BDE859
:10034000F08B13B54FF000004FF00001AFF30080C9
:10035000BDE81C4070474FF0000200B513469446BC
:100360009646203922BFA0E80C50A0E80C50B1F10D
:100370002001BFF4F7AF090728BFA0E80C5048BF21
:100380000CC05DF804EB890028BF40F8042B08BFBF
:10039000704748BF20F8022B11F0804F18BF00F8BB
:1003A000012B7047704770477047754600F02CF876
:1003B000AE4605006946534620F00700854618B052
:1003C00020B5FFF73FFFBDE820404FF000064FF09B
:1003D00000074FF000084FF0000B21F00701AC467A
:1003E000ACE8C009ACE8C009ACE8C009ACE8C00999
:1003F0008D46704710B50446AFF300802046BDE837
:100400001040FFF70ABF000000487047A00400201A
:1004100001491820ABBEFEE726000200704710B568
:100420000146806B026C12F0500F05D0026CD206B0
:1004300026D500F065FA10BD016C41F4007101642D
:1004400001688A6812F0405F17D1027EAAB9CA6AB1
:1004500012F4700F02D08A6852050ED44A6822F056
:1004600020024A60016C21F480710164016CC904AE
:1004700003D4016C41F00101016400F03FFA10BDAA
:10048000806BC26CBDE810400846104710B5806B09
:1004900040210164416C41F00401416400F030FAF4
:1004A00010BD10B5806B00F02AFA10BD464910B59A
:1004B0004A6822F440324A604A6843681A434A60F4
:1004C00001684A6822F480724A6001684A680369D8
:1004D00042EA03224A6001684A6822F040724A6098
:1004E00001684A6883681A434A6001688A6822F48E
:1004F00000628A6001688A68C3681A438A60816AF8
:100500006FF07062D14201688A6822F070628A607E
:1005100001688A680CD0836A1A438A6001688A6815
:1005200022F040528A6001688A68C36A1A4301E077
:1005300022F040528A6001688A6822F002028A60D2
:1005400001688A68037E42EA43028A6090F82010BC
:10055000002901684A680FD042F400624A600168CD
:100560004A6822F460424A6001684A68174C436A4C
:1005700004EB43331A4301E022F400624A6001684D
:10058000CA6A22F47002CA620168CA6A838B104C7C
:1005900004EB03531A43CA6201688A6822F40072AA
:1005A0008A6001688A6890F8303042EA43228A60A3
:1005B00001688A6822F480628A6001688A684069FA
:1005C00042EA8020886010BD0023014000E0FFFF68
:1005D0000000F0FFFEE70000014800F03EBC000014
:1005E0005002002010B5264800F05EFE08B172B639
:1005F000FEE72449C0200122C1E900020020C860B2
:1006000008230B6188600875183170240C60C1E9FB
:100610000303C1E9012008751B49A1F166040870B4
:1006200048708870C870A47A0C7148718871C8715C
:10063000083184F00104087048708870C8700C712B
:1006400048718871C8710F49C12430310C60C1E90B
:100650000303C1E901200875183171240C60C1E958
:100660000303C1E9012008750749142320310B70E9
:1006700048708A70C870087148718871C87110BD5F
:10068000500200202C0100206600002000B58BB035
:10069000002001210190029008910590CDE906010A
:1006A0000490009003900E2009906946074800F0DE
:1006B000D9FA08B172B6FEE70221044800F052FAF6
:1006C000002801D072B6FEE70BB000BD500200203A
:1006D000014800F01DBE0000F0010020014800F0BC
:1006E00017BE00004004002001681823CAB2103A67
:1006F000B2FBF3F2054B6FF30901032A9B5CC36560
:1007000000D9091D81650846704700008C54000817
:1007100010B5014600208B698A6A4FF0C07453B14E
:10072000B3F5005F15D072B1012A0CD0022A0AD0AD
:10073000032A09D104E01AB1012A06D0022A03D102
:10074000C96AC90100D5012010BDC96AA142FAD009
:1007500010BD002AF7D0012AF2D0022AF3D0032AD2
:10076000F3D010BD30B50468256825F480252560D8
:10077000046863608368402B036803D09960006855
:10078000C26030BD9A600068C16030BD7047022011
:1007900000F0AABF042000F0A7BF082000F0A4BF0B
:1007A000102000F0A1BF202000F09EBF72B6FEE72F
:1007B00078B50024009490F83C20012A19D0012239
:1007C00080F83C200A6807230568092A13D9EE68D7
:1007D0000A3A02EB420293409E43EE600B788A682D
:1007E0000A3B03EB43039A400368DD682A43DA605F
:1007F00010E0022078BD2E6902EB420293409E4336
:100800002E610B788A6803EB43039A4003681D69E5
:100810002A431A614A681F23072A13D205686E6BA0
:10082000521E02EB820293409E436E630B790A884C
:100830005B1E92B203EB83039A4003685D6B2A430D
:100840005A6327E005680D2A12D22E6BD21F02EBE5
:10085000820293409E432E630B790A88DB1F92B27B
:1008600003EB83039A4003681D6B2A431A6311E06C
:10087000EE6A0D3A02EB820293409E43EE620B79E0
:100880000A880D3B92B203EB83039A400368DD6A4A
:100890002A43DA62164B0568144A9D4206D10D6858
:1008A000122D03D1556845F48005556005689D42B9
:1008B00018D10B68102B01D0112B13D1536843F4BE
:1008C00000035360096810290CD10A490A4A0968D3
:1008D000B1FBF2F101EB8101490000E0491E0091FA
:1008E0000029FBD180F83C40002078BD0023014066
:1008F000002001401C01002040420F00704770475B
:10090000704770B504004FF0000503D0206C00263E
:1009100010B107E0012070BD204600F01DF86664AC
:1009200084F83C60206CC00610D4206C20F4885001
:1009300040F0020020642046FFF7B8FD6664206C9A
:1009400020F0020040F00100206400E0012584F85E
:100950003C60284670BD000070B586B00646142184
:100960006846FFF7F8FC24493068884242D12348A2
:100970000025016841F48071016000681F4900F49E
:10098000807014390590086840F004000860086819
:1009900000F004000590086840F001000860086855
:1009A000032400F00100059013208DE83100694612
:1009B000134800F0A5FE1D208DE83100694611485E
:1009C00000F09EFE114C1048C4E900050015A5601A
:1009D000C4E90350400060618000A0614011C4E997
:1009E00007052046656200F063FD08B1FFF7DEFEF3
:1009F000B463A66306B070BD0020014044380240D5
:100A0000000802400000024010640240F001002093
:100A1000F8B5044600200E46009094F83C100129D9
:100A200007D0012184F83C1021688B68DB0702D0D5
:100A300011E00220F8BD8B6843F001038B60404950
:100A4000404B0968B1FBF3F101EB410100E0491EA5
:100A500000910029FBD121688B68DB0503D58B68E9
:100A600023F480738B6021688B68DB075DD0236C77
:100A700040F20165AB4343F4807323644968490540
:100A800005D5216C21F4005141F480512164216C81
:100A9000C90404D5616C21F00601616400E0606462
:100AA00084F83C00A16B2948274DC863A16B2848F6
:100AB0000864A16B2748C86421686FF022000860B1
:100AC0002068416841F0806141602068816841F49C
:100AD000807181602168134632464C31A06B00F072
:100AE00051FD68681C49C006206806D0884224D1A0
:100AF000816811F0405F13D01FE08842F8D0174A98
:100B0000904203D1D1F80423D206F1D0144A904286
:100B100013D1D1F8041301F01F011029E8D30CE020
:100B2000816841F08041816007E0206C40F0100056
:100B30002064606C40F0010060640020F8BD00009B
:100B40001C01002040420F00002301401F04000848
:100B5000A30400088D04000800200140002101408A
:100B60000022014090F82020012A07D0022A05D057
:100B7000416A41F480214162012070470068426966
:100B80000A43426100207047F0B590F82050046895
:100B9000A468012D05D0022D03D0416A41F48021C3
:100BA0005DE014F0406F01D1E50055D5C4F3016458
:100BB000022C03D9416A41F4000150E00125A5400F
:100BC0001D608D684FF4C0739DB1CE6835434E688B
:100BD00045EAC605066803EB0417F5514FF4C275E4
:100BE000076805EB04150E697E51097D012905D0C2
:100BF00009E00E88CD6845EA4655EBE701684E5995
:100C000046F480764E511179D579567941EA0561DD
:100C100095792D0445EA062529434FF4C6760568E3
:100C200006EB0416A9511178D57841EA056195784B
:100C300052782D0445EA022211434FF4C47502682C
:100C400005EB04155151006803EB0411425842F0C2
:100C5000010242500020F0BD416A41F4001141629E
:100C60000120F0BD10B590F82020012A07D0022AFB
:100C700005D0416A41F480214162012010BD3B480A
:100C8000D0F8002242F00102C0F80022D0F8002281
:100C900022F47C52C0F80022D0F800224B6A42EACB
:100CA0000322C0F800220A7D02F01F0301229A40AD
:100CB000D0F81C329343C0F81C32CB69B3B9D0F8DA
:100CC0000C329343C0F80C328C894B6864F31F4399
:100CD0004C6900EBC404C4F840320C890B6864F31F
:100CE0001F434C6900EBC404C4F84432CB69012BA8
:100CF00016D1D0F80C321343C0F80C320C884B6874
:100D000064F31F434C6900EBC404C4F840320C89FF
:100D1000CB6864F31F434C6900EBC404C4F844324D
:100D20008B69002BD0F804320ED01343C0F8043284
:100D30000B69002BD0F8143208D01343C0F81432DA
:100D4000096A012904D008E09343EFE79343F5E7EC
:100D5000D0F81C121143C0F81C12D0F8001221F078
:100D60000101C0F80012002010BD00000064004026
:100D7000704730B590F82040012C05D0022C03D0EC
:100D8000416A41F480215DE00468002955D024695E
:100D9000A40754D04FF4D874056804EB01142D59FE
:100DA00015F00405956005682D594ED0ED08556085
:100DB00005682C5904F00204D4604FF4DA74056815
:100DC00004EB01142D5905F00F05156105682D5927
:100DD000C5F30725956105682C59240C54614FF41F
:100DE000DC72046802EB0112A4581C700468A45859
:100DF000240A5C700468A458240C9C700468A258EF
:100E0000120EDA704FF4DE72046802EB0112A4587D
:100E10001C710468A458240A5C710468A458240C4A
:100E20009C710468A258120EDA71006881B10169E0
:100E300041F020010161002030BDE468A8E7416A6B
:100E400041F400114162012030BD6D0D1560AFE726
:100E5000C16841F02001C160EDE72DE9F05F054672
:100E6000006800244669D0F804908768D0F80CB078
:100E7000D0F810A0D0F81880F10748D0F90714D0A6
:100E800001218160B80703D5284600F03AFA0CE04A
:100E9000780702D54FF4006407E0380702D54FF415
:100EA000805402E0284600F02BFAF80516D5296890
:100EB0004FF480708860B80503D5284600F023FA07
:100EC0000CE0780502D544F4005407E0380502D55B
:100ED00044F4804402E0284600F014FAF80316D5E2
:100EE00029684FF480308860B80303D5284600F0A5
:100EF0000CFA0CE0780302D544F4004407E0380310
:100F000002D544F4803402E0284600F0FDF93007B1
:100F100007D55FEACB6004D52968102044F400743B
:100F2000C86070074FF0080707D55FEA0B7004D55B
:100F30002868C760284600F04FF9B00706D5286832
:100F4000C068800702D0284600F048F9700607D52F
:100F50005FEACA6004D52968102044F480640861FF
:100F6000B00607D55FEA0A7004D5286807612846ED
:100F700000F096F9F00606D528680069800702D0CF
:100F8000284600F08EF9B00308D55FEAC96005D5A0
:100F9000296810204860284600F084F9F00307D53E
:100FA0005FEA097004D528684760284600F0AEF96A
:100FB000300446D55FEA497040D5F00504D55FEAB4
:100FC000C87001D044F00104B00504D55FEA887010
:100FD00001D544F00204700504D55FEA487001D5DC
:100FE00044F00404300529D518F0700F26D008F01D
:100FF0007000402815D006DC102809D020280AD01F
:10100000302816D10AE050280ED0602811D10EE009
:1010100044F008040DE044F010040AE044F0200419
:1010200007E044F0400404E044F0800401E044F4AC
:1010300080742868816921F0700181612968042029
:101040004860002C05D0686A204368622846FFF794
:101050008FFEBDE8F09F70B5040003D094F8200027
:1010600010B104E0012070BD204600F081F8206836
:10107000016821F00201016000F04AFC05460526E6
:1010800004E000F045FC401B0A2811D820684068A5
:101090008007F6D42068016841F00101016000F08A
:1010A00037FC05460BE000F033FC401B0A2806D94C
:1010B000606A40F40030606284F82060D2E7206803
:1010C0004068C007EFD0207E0128206801683DD02D
:1010D00021F080010160607E01282068016838D01D
:1010E00021F040010160A07E01282068016833D012
:1010F00021F020010160E07E0128206801682ED0E7
:1011000041F010010160207F01282068016829D08A
:1011100021F008010160607F01282068016824D067
:1011200021F004010160D4E902010843D4E904126A
:10113000114308436168491E08432168C8610020C3
:101140006062012084F82000002070BD41F0800121
:10115000C0E741F04001C5E741F02001CAE721F0B6
:101160001001CFE741F00801D4E741F00401D9E7CD
:1011700010B586B0044614216846FFF7ECF8134911
:10118000206888421FD112480021026842F0007294
:101190000260006800F0007005900D481038026889
:1011A00042F0080202600068022200F00800059088
:1011B0000320CDE90210CDE9000209200490694620
:1011C000044800F09DFA06B010BD00000064004025
:1011D00040380240000C0240704700002DE9F04703
:1011E0002C4B2D4A0021FFF7C4FD08B172B6FEE773
:1011F0002948284D274E00888E3D83B2EB82552B1F
:1012000041D00022012025495B2B18D0A52B33D0DB
:10121000AB2B36D16A71002405F1760780468946EA
:10122000305D385530B1012285F8058011464846B9
:1012300000F069FB641C082CF2DB687913E0154FA1
:1012400000242A71103F80468946305D385530B100
:10125000012285F804801146484600F054FB641CC6
:10126000082CF2DB287900280BD14846BDE8F0476E
:101270000022012100F047BBB078F17800EB01209B
:10128000A881BDE8F087B078F17800EB0120E88113
:10129000F7E700008E0000208C01002000040240CF
:1012A000704770477047000070B5044690F8200002
:1012B000012804D0606A40F40020606218E0022037
:1012C00084F820002068016821F00101016000F02D
:1012D0001FFB05460EE000BF00F01AFB401B0A286A
:1012E00008D9606A40F400306062052084F820006C
:1012F000012070BD20684068C007EDD1606270BDFC
:1013000070477047704770477047704770470000DC
:101310002DE9F84304464FF00009CDF800906348EA
:101320004FF41651A56D0068B0FBF1F72E6894F8E4
:101330005C10082000FA01F131420FD021680A68E0
:1013400052070BD50A6822F004020A6094F85C1078
:101350008840A860606D40F00100606594F85C1002
:101360004FF0010808FA01F0304208D021684969BD
:10137000090604D5A860606D40F00200606594F82D
:101380005C1004208840304208D021680968890731
:1013900004D5A860606D40F00400606594F85C10AE
:1013A00010208840304218D021680968090714D5F8
:1013B000A86020680168490304D50068000308D5C7
:1013C000A16C07E00168C90503D4016821F0080198
:1013D0000160216C09B12046884794F85C102020F8
:1013E0008840304231D021680968C9062DD5A860EF
:1013F00094F8350005282068016806D0490347D5D0
:10140000006800031DD4616C1CE021F0160101602E
:101410002068416921F080014161206C08B9A06C0D
:1014200020B12068016821F00801016094F85C1087
:101430003F208840A86084F8349084F83580216D7E
:101440001FE0E16B09B120468847606D00282BD072
:10145000606DC00714D0052084F83500206801684D
:1014600021F0010101600098401C0090B84203D8AF
:1014700020680068C007F6D184F8349084F835807D
:10148000E16C002910D001B02046BDE8F0430847C8
:101490000168C905D5D4016821F01001016084F804
:1014A000349084F83580CCE7BDE8F8831C01002037
:1014B0002DE9F041044600F02BFA06465CB1002508
:1014C00084F83450022084F835002068016821F047
:1014D000010101600DE00120BDE8F08100F018FA83
:1014E000801B052805D920206065032084F835007D
:1014F000F2E720680068C007F0D122681168204830
:101500000140D4E901031843D4E9033633431843B7
:1015100063691843A3691843E3691843236A1843AE
:101520000843616A042903D1D4E90B131943084322
:10153000106020684069666A20F0070130460E435B
:10154000012704280CD1A06A0643E06A40B1204676
:10155000FFF7DEF820B14020606584F83570BAE707
:10156000206846612046FFF7BFF894F85C203F21D1
:1015700091408160656584F835700020ACE700001B
:101580003F8010F02DE9F0410446866D90F834005C
:10159000002501280DD0012084F8340094F835701E
:1015A0000020012F07D084F8340002252846BDE82A
:1015B000F0810220FBE7022784F835706065204641
:1015C000FFF7D0F894F85C103F208840B0602068A6
:1015D000016841F016010160206C20B120680168AB
:1015E00041F0080101602068016841F001010160DB
:1015F000DCE7000070B5044600F08AF90546601C7F
:1016000002D004480078044400F082F9401BA04254
:10161000FAD370BD100100202DE9F04700242A4ABA
:101620002A4FDFF8AC8001252A4E042813D0DFF8BA
:10163000A890DFF8A8A008281BD0022828D02028CE
:1016400007D12021104600F051F9002801D124488B
:101650000570BDE8F0870421104600F047F930B965
:10166000387820B198F8000008B13570F1E734708F
:10167000EFE70821104600F039F938B13C7089F8DD
:101680000040002234704021504615E03D70E0E7F4
:101690000221104600F02AF9124F012810D088F8D4
:1016A000004089F80040347000224021504600F08C
:1016B0002AF9002220213846BDE8F04700F023B97E
:1016C00088F800500122F5E70010024008000020D1
:1016D0000700002006000020020000200000024059
:1016E0000900002000080240044910B50A680242BF
:1016F00002D00860FFF790FF10BD0000143C0140CD
:101700002DE9F84FDFF8B8A1002201250AF1040BFA
:1017100003264FF00F090BF1040E00BF0B6805FA0A
:1017200002F42340A3426FD10F7907F00307012F82
:1017300001D0022F16D187684FEA420806FA08FC4A
:1017400027EA0C07D1F80CC00CFA08FC4CEA070C8D
:10175000C0F808C04768A7430C79C4F3001494404C
:101760003C4344600C79E443A4070AD0C4684FEAC0
:10177000420C06FA0CF7BC438F6807FA0CF72743B4
:10178000C7600C7904F00304022C12D1D40800EBDA
:10179000840CDCF820405707FF0E09FA07F824EA0A
:1017A0000804D1F8108008FA07F848EA0408CCF8D1
:1017B000208004684FEA420C06FA0CF7BC430F790C
:1017C00007F0030707FA0CF7274307604C68E400AB
:1017D00070D53C4C276847F480472760246822F086
:1017E000030704F480440094374C07EB040CDCF846
:1017F000084897074FEA177809FA08F7BC43334FB0
:10180000B84202D1002724E054E0314FB84201D160
:1018100001271EE02F4FB84201D1022719E02E4FB9
:10182000B84201D1032714E02C4FB84201D104275C
:101830000FE02B4FB84201D105270AE0294FB842EB
:1018400001D1062705E0284FB84201D1072700E063
:10185000082707FA08F72743CCF80878DAF8004099
:101860005746D1F804C09C435FEACC3C00D51C43EA
:101870003C60DBF800405F46D1F804C09C435FEA5F
:101880008C3C00D51C433C60DEF800407746D1F824
:1018900004C09C435FEACC2C00D51C433C60084F3D
:1018A0000C373C68D1F804C09C435FEA8C2C00D50F
:1018B0001C433C60521C102AFFF430AFBDE8F88F87
:1018C000003C01404438024000300140000002402A
:1018D0000004024000080240000C024000100240D8
:1018E0000014024000180240001C02400069084039
:1018F00000D001207047426921EA02030A4043EA0E
:101900000241816170470AB1816170470904FBE7B8
:1019100001488068704700001001002070B5040085
:1019200011D021684CF6CC400860216845F2555032
:101930000860D4E9000141602168A0688860FFF771
:10194000E7FF05460DE0012070BD00BFFFF7E0FF97
:10195000401B302805D92068C068800701D00320CB
:1019600070BD2068C0688007F0D121684AF6AA20BF
:101970000860002070BD00684AF6AA2101600020BE
:101980007047000002488168027811448160704706
:10199000100100200B4810B5016841F4007101608E
:1019A000016841F480610160016841F48071016067
:1019B000032000F071F8002000F006F800F024F891
:1019C000002010BD003C024070B50D4D04464FF4A0
:1019D0007A712878B1FBF0F00A490968B1FBF0F0A0
:1019E00000F003FE48B9102C07D200222146501EF9
:1019F00000F032F800206C6070BD012070BD000066
:101A0000100100201C0100200B4882B0016841F445
:101A100080410160006800F4804000900648001F8B
:101A2000016841F080510160006800F08050009032
:101A3000052002B000F030B844380240002809DB2D
:101A400000F01F02012191404009800000F1E020D8
:101A5000C0F8001170470000F0B40E4B1B680C4634
:101A6000C3F30223C3F10705042D00D90425191D72
:101A7000072901D2002300E0DB1E012606FA05F14A
:101A8000491E214099409E40761E16403143F0BCCD
:101A900002F051BC0CED00E0064900F007020868B6
:101AA0004FF6FF03184040EA0220034A1043086043
:101AB000704700000CED00E00000FA052DE9F0474A
:101AC0000E46050065D0DFF81481D8F80000F7B2A3
:101AD00000F00700B04207D288F80070D8F8000084
:101AE00000F00700B04254D128683D4C810712D560
:101AF000400703D5206840F4E050206028780007B4
:101B000003D5206840F4604020602068A96820F078
:101B1000F000084320602878C0072DD0304968685D
:101B20000839012812D0022813D0032811D00968DF
:101B3000890700292DDA216821F003010143216082
:101B4000FFF7E6FE814641F2883A0EE00968890314
:101B5000EFE709688901ECE7FFF7DAFEA0EB09017E
:101B6000514502D90320BDE8F0872068696800F07C
:101B70000C00B0EB810FEFD1D8F80010404601F017
:101B80000701B14207D90770006800F00700B042B2
:101B900001D00120E7E72878400705D52068E968EB
:101BA00020F4E050084320602878000706D520681C
:101BB000296920F4604040EAC100206000F038F854
:101BC0002168084AC1F30311515CC8400649086006
:101BD00006480068FFF7F8FE0020C4E7003C02401A
:101BE00008380240945400081C0100201401002011
:101BF0000448054900680968044AC1F38221515C20
:101C0000C84070471C01002008380240A454000856
:101C10000448054900680968044AC1F34231515C2F
:101C2000C84070471C01002008380240A454000836
:101C3000154810B5006810F00C02144813D041107C
:101C4000042A0FD0082A0ED10F4C241F22682368C3
:101C500002F03F025B0207D52068C0F38810A0FBAA
:101C6000010106E0084610BD2168C1F38811A1FBFF
:101C700000010023FEF7F8FA2168C1F30141491C75
:101C80004900B0FBF1F010BD083802400024F40018
:101C90002DE9F84F04006ED02078DFF84C93C00790
:101CA000A9F104054AD009F104000168C1F38101DA
:101CB000012908D00068C0F3810002280AD1D9F8B0
:101CC0000000400206D52868800337D560680028E8
:101CD000E1D033E06068B0F5803F10D0B0F5A02FC0
:101CE000286810D020F480302860286820F48020F4
:101CF00028606068A8B1FFF70BFE06460DE0286873
:101D000040F48030F4E740F480202860F7E700BF1B
:101D1000FFF7FEFD801B642873D828688003F7D581
:101D20000CE0FFF7F5FD064605E000BFFFF7F0FD0C
:101D3000801B6428F0D828688003F7D42078DFF867
:101D4000AC8280074FF0000A3ED5A748001D01680D
:101D500011F00C0F08D00068C0F3810002280BD1ED
:101D6000D9F80000400207D42868800716D5E0683B
:101D7000012800D112E033E1E068B8B10120C8F8D1
:101D80000000FFF7C5FD064605E000BFFFF7C0FDF8
:101D9000801B0228C0D828688007F7D528682169E9
:101DA00020F0F80040EAC10028600DE0C8F800A06B
:101DB000FFF7AEFD064604E0FFF7AAFD801B0228F0
:101DC0001FD828688007F7D42078000722D5864FCF
:101DD00087486169703771B101210160FFF798FD93
:101DE000064604E0FFF794FD801B022809D83868F6
:101DF0008007F7D50EE0C0F800A0FFF789FD064682
:101E000005E082E0FFF784FD801B02287DD838685A
:101E10008007F7D42078400768D5DFF8CCB10027D9
:101E20000BF13C0BDBF80000C0000BD4DBF800101A
:101E300041F08051CBF80010DBF80000012700F0E2
:101E4000805000906B4E3068C00510D4306840F46C
:101E500080703060FFF75CFD009005E0FFF758FDF3
:101E60000099401A022850D83068C005F6D55E4E59
:101E7000A0686C3601280FD00528306810D020F0FB
:101E800001003060306820F004003060A068B8B114
:101E9000FFF73EFD00900FE0306840F00100F4E7EE
:101EA00040F004003060F7E7FFF732FD0099411A77
:101EB00041F28830814266D830688007F4D50EE060
:101EC000FFF726FD009007E0FFF722FD0099411A79
:101ED00041F28830814256D830688007F4D42FB15F
:101EE000DBF8001021F08051CBF80010A069C8B3D6
:101EF0003D49091D0968C1F3810102294AD0022820
:101F0000504607D0C8F8600000E03CE0FFF700FD55
:101F100004463BE04746C8F86000FFF7F9FC064678
:101F200005E000BFFFF7F4FC801B02282BD82868CF
:101F30008001F7D4D4E907010843A16A2E4A490871
:101F400002EB0141626A41EA8211084394F82C10C5
:101F500040EA0161C9F8001001203866FFF7D8FC9B
:101F6000044606E03EE000BFFFF7D2FC001B02285B
:101F700009D828688001F7D534E000BFFFF7C8FC16
:101F8000001B022802D90320BDE8F88F28688001D1
:101F9000F4D427E00128F7D0D9F80000E26900F472
:101FA000800191421CD1226A00F03F01914217D179
:101FB00047F6C071626A0140B1EB821F10D1A26A7C
:101FC0004FF0FF3300F4403103EB5202B1EB024F0C
:101FD00006D194F82C1000F07060B0EB016F01D0C6
:101FE0000120D1E70020CFE704380240000047423B
:101FF000800E4742007000400000FFFF70B50400F3
:1020000009D0606A002540B125616561A56294F838
:10201000510040B10CE0012070BD6068B0F5827FD6
:10202000F4D0E561F2E784F85050204600F044F81F
:10203000022084F851002068016821F0400101600D
:10204000A088218900F4827001F404410843A18929
:1020500001F400610843217C01F002010843217D65
:1020600001F001010843218B01F400710843217F35
:1020700001F03801084394F8201001F08001084372
:10208000218D01F40051084321680860A0690421F2
:1020900001EA104094F8241001F01001084321686F
:1020A00048602068C16921F40061C1616565012053
:1020B00084F85100002070BDF0B587B004461421AB
:1020C0006846FEF748F91C492068884232D11B480F
:1020D0000024016841F480410160006800F4804000
:1020E000059016481038016841F00401016001684C
:1020F00001F004010591016841F0020101600068EE
:10210000022500F0020005900C20CDE9000502AA8E
:102110000326052782E8D00069460948FFF7F0FA50
:102120006802CDE9000502AA694682E8D0000548A8
:10213000FFF7E6FA07B0F0BD003800404038024033
:1021400000080240000402402DE9F84F04464068B0
:102150000025984616460F464FF0040BB0F5827FD7
:1021600001D1A06888B194F85000012818D001204E
:1021700084F85000FFF7CCFB814694F851004FF0F3
:10218000000A01280ED0022582E084F851B01346DF
:102190000A462046CDF8008000F036F9BDE8F88FF9
:1021A0000220FBE7002F72D0002E70D084F851B0CF
:1021B000C4F854A0A763A687E687C4F830A0A4F8A3
:1021C00034A0A4F836A0C4F840A0C4F844A0A06885
:1021D000B0F5004F09D12068016821F0400101608D
:1021E0002068016821F48041016020680168490687
:1021F00003D4016841F040010160E068D8B139E0E2
:1022000020688168C90709D0007BA16B0870A06BAA
:10221000401CA063E08F401EE0870CE0FFF778FBD6
:10222000A0EB0901414503D3B8F1FF3F03D036E0ED
:10223000B8F1000F33D0E08F0028E1D11DE0206815
:102240008168C90709D0C068A16B0880A06B801C99
:10225000A063E08F401EE0870CE0FFF759FBA0EB86
:102260000901414503D3B8F1FF3F03D017E0B8F1AE
:10227000000F14D0E08F0028E1D14A4641462046A5
:1022800001F0A9FC08B120206065606D00B1012556
:10229000012084F8510084F850A028467EE70325E9
:1022A000F6E72DE9F84F044690F8500000271D4648
:1022B0001646894601280DD04FF0010B84F850B026
:1022C000FFF726FB804694F85100BA46012804D057
:1022D000022793E00220BDE8F88FB9F1000F73D018
:1022E000002E71D0032084F85100C4F854A0C4F823
:1022F0003090A686E686C4F838A0A4F83CA0A4F8DE
:102300003EA0C4F844A0C4F840A0A068B0F5004FB7
:1023100009D12068016821F040010160206801684E
:1023200041F48041016020680168490603D40168D6
:1023300041F040010160E068B0F5006F606803D0D3
:1023400030B3012E24D041E008B1012E1CD1206B06
:1023500021680088C86006E020688168890709D57F
:10236000216B0988C160206B801C2063E08E401EB9
:10237000E08609E0FFF7CCFAA0EB0800A84202D300
:10238000681C01D031E07DB3E08E0028E4D120E06C
:10239000206B21680078087306E02068816889074F
:1023A00009D5216B09780173206B401C2063E08EF6
:1023B000401EE0860AE0FFF7ABFAA0EB0800A84257
:1023C00003D3681C02D010E017E06DB1E08E002846
:1023D000E3D142462946204601F02CFC08B12020DA
:1023E0006065A06818B106E0FFE7032706E02068F3
:1023F000C16880680090606D00B1012784F851B019
:1024000084F850A0384666E72DE9F84F044690F866
:10241000500000270A9E1D4692468B464FF0010948
:1024200001280ED0012084F85000FFF771FA804691
:1024300094F85100616801280CD0B1F5827F07D172
:1024400002E00220BDE8F88FA16809B9042801D094
:102450000227C2E0BBF1000F27D0BAF1000F24D051
:102460001DB394F85100042802D0052084F85100CF
:1024700000206065C4F838A0E587A587C4F830B0AF
:10248000E586A5862064606420680168490603D457
:10249000016841F040010160E068B0F5006F6068DC
:1024A00005D0E8B3012D46D07FE0012795E008B1C3
:1024B000012D39D1206B21680088C860206B801CF9
:1024C0002063E08E401EE0862EE020688168890748
:1024D0000FD5E18E69B1B9F1010F0AD1216B0988DD
:1024E000C160206B801C2063E08E401EE0864FF0B0
:1024F000000920688168C9070CD0E18F51B1C0681C
:10250000A16B0880A06B801CA063E08F401EE08759
:102510004FF00109FFF7FCF9A0EB0800B04200E022
:1025200009E001D3701C50D1E08E0028CDD1E08F9E
:102530000028CAD13FE0206B216800780873206B27
:10254000401C2063E08E401EE0862EE020688168FB
:1025500089070FD5E18E69B1B9F1010F0AD1216B5D
:1025600009780173206B401C2063E08E401EE086DA
:102570004FF0000920688168C9070CD0E18F51B184
:10258000C068A16B0870A06B401CA063E08F401E68
:10259000E0874FF00109FFF7BBF9A0EB0800B0425C
:1025A00002D3701C01D010E07EB1E08E0028CDD1A6
:1025B000E08F0028CAD142463146204601F03AFB5E
:1025C00028B101272020606507E0032705E0A06807
:1025D00018B92068C16880680090012084F8510013
:1025E000002084F8500038462CE710B5401EB0F1AA
:1025F000807F01D3012010BD4FF0E02460610F21E6
:10260000601701F098FE0020A061072020610020E3
:1026100010BD7047704710B590F83C20012A22D0B9
:10262000012280F83C20CA688C6822F44072224360
:102630004C6822F4806222430C6822F40062224338
:102640000C6922F4805222434C6922F40052224346
:10265000C969002322F480420A4301684A6480F871
:102660003C30002010BD022010BD000070B590F875
:102670003C20012A32D0012480F83C40022280F81C
:102680003D2003685A689D6822F070060A6832434C
:102690005A60134B02689A4214D0B2F1804F11D0A5
:1026A000104B9A420ED0104B9A420BD00F4B9A42CD
:1026B00008D00F4B9A4205D00E4B9A4202D00E4BD7
:1026C0009A4204D1496825F080031943916080F84B
:1026D0003D40002180F83C10084670BD022070BDCE
:1026E000000001400004004000080040000C0040D1
:1026F00000040140004001400018004010B50400F3
:1027000003D094F83D0010B107E0012010BD002077
:1027100084F83C00204600F01FF8022084F83D00B9
:10272000211D206801F078FB012084F8460084F820
:102730003E0084F83F0084F8400084F8410084F8AB
:10274000420084F8430084F8440084F8450084F88B
:102750003D00002010BD000030B587B004461421B4
:102760006846FDF7F8FD246831480021844201D114
:1027700030482BE02F48001FB4F1804F26D02D4B5E
:102780002D4D143B0222AC422AD1046844F00204CD
:102790000460006800F002000590186840F0020034
:1027A0001860186800F00200059022200090CDE922
:1027B0000121CDE9031269462048FEF7A1FF00225E
:1027C00002211D20FFF748F91D202DE0016841F08E
:1027D00001010160006800F00100059007B030BD04
:1027E000174DAC42FAD1046844F004040460006858
:1027F00000F004000590186840F0080018601868A0
:1028000000F0080005904FF420400090CDE9012130
:10281000CDE9031269460B48FEF772FF0022022140
:102820001E20FFF719F91E20FFF708F9D6E7000070
:10283000000001404438024000040040000402400F
:1028400000080040000C024090F83D10012901D022
:1028500001207047022180F83D100168CA6842F0EB
:102860000102CA6000681149884214D0B0F1804F5B
:1028700011D00F4988420ED00E4988420BD00E4924
:10288000884208D00D49884205D00D49884202D0BF
:102890000C49884204D1816801F00701062903D060
:1028A000016841F001010160002070470000014013
:1028B0000004004000080040000C004000040140FB
:1028C000004001400018004070B5044690F83C00FC
:1028D000012817D0012584F83C50022084F83D00DF
:1028E0002068826822F0770222F47F4282600868C2
:1028F000502830D00DDC20284DD005DC98B31028AE
:102900003BD148E0022070BD302844D0402834D16B
:1029100039E0602828D0702806D0B0F5805F2CD030
:10292000B0F5005F29D10AE0CB68D1E90121206828
:1029300001F0E3FA2068816841F0770109E0CB6893
:10294000D1E90121206801F0D8FA2068816841F4BA
:102950008041816011E0CA684968206801F0E5FBA8
:102960005021206807E016E0CA684968206801F035
:102970002DFC6021206801F0CAFA84F83D50002047
:1029800084F83C0070BDCA684968206801F0CDFB3E
:1029900040212068EFE7226801461046EBE700007F
:1029A00070B50646006841490025414C88423BD13C
:1029B000307F02281AD10421304600F0E3FCA063E6
:1029C00090B10021304600F0DDFC6421E063484313
:1029D000A16BB0FBF1F06064FFF70AF9A16B400056
:1029E000B0FBF1F0206401E065642564307F0828C5
:1029F0001AD10C21304600F0C5FCA06390B108212B
:102A0000304600F0BFFC6421E0634843A16BB0FB9B
:102A1000F1F0E064FFF7ECF8A16B4000B0FBF1F0DF
:102A2000A06401E0E564A56422493068884238D199
:102A3000307F02281AD10421304600F0A3FCA063A5
:102A400090B10021304600F09DFC6421E0634843D2
:102A5000A16BB0FBF1F06065FFF7CAF8A16B400015
:102A6000B0FBF1F0206501E065652565307F082841
:102A700017D10C21304600F085FCA06390B10821ED
:102A8000304600F07FFC6421E0634843A16BB0FB5B
:102A9000F1F0E065FFF7ACF8A16B4000B0FBF1F09E
:102AA000A06570BDE565A56570BD0000000400402F
:102AB00000000020000800402DE9F041054690F894
:102AC0003C000C46012836D0012085F83C008AB332
:102AD000042A42D02868082A51D0D4E90023E168AA
:102AE000066A26F480560662C669076A26F44076AE
:102AF00046EA03234FF6FF7606EA013123F47043DA
:102B000019434FF4204627F4204306EA02321A43C1
:102B1000C16102622868C16921F44061C16128680D
:102B2000C169A26841EA0221C161002085F83C0028
:102B3000BDE8F08101E00220FAE7D4E90012E36881
:102B4000286801F003FB2868816921F00C0181618C
:102B500028688169A26811430FE0D4E90012E36894
:102B6000286801F045FB2868816921F44061816192
:102B700028688169A26841EA02218161D5E7D4E928
:102B80000027267B016A21F480710162C169036A12
:102B900021F00301394321F0F00731074FF420669B
:102BA00047EA116123F4206306EA02221A43C16155
:102BB00002622868C16921F00C01C1612868C169FD
:102BC000A2681143B0E710B5040003D094F83D00AB
:102BD00010B107E0012010BD002084F83C00204621
:102BE00000F01EF8022084F83D00211D206801F04D
:102BF00013F9012084F8460084F83E0084F83F0071
:102C000084F8400084F8410084F8420084F84300CE
:102C100084F8440084F8450084F83D00002010BD8D
:102C20007047000010B5044651B104290DD00829A1
:102C300010D094F8410094F84520012811D10EE0FD
:102C400094F83E0094F84220F7E794F83F0094F897
:102C50004320F2E794F8400094F84420EDE7012A7D
:102C600001D0012010BD022051B1042911D0082942
:102C700018D084F8410084F845000C291BD142E0AB
:102C800084F83E0084F842002068C26842F00202E4
:102C900010E084F83F0084F843002068C26842F0E6
:102CA000040207E084F8400084F844002068C26809
:102CB00042F00802C2600122206801F011F91449B3
:102CC0002068884214D0B0F1804F11D01149884259
:102CD0000ED0114988420BD01049884208D01049C3
:102CE000884205D00F49884202D00F49884204D15A
:102CF000816801F00701062903D0016841F0010154
:102D00000160002010BD2068C26842F01002D1E7C7
:102D1000000001400004004000080040000C00409A
:102D200000040140004001400018004070B5044616
:102D3000006801694FF00005C943890715D4C168CF
:102D4000C943890711D4E91E016101202077206859
:102D500080698007204602D0FFF722FE04E000F0E1
:102D6000C3F8204600F052F9257720680169C9436D
:102D7000490717D4C168C943490713D46FF0040148
:102D80000161022020772068806910F4407F20468E
:102D900002D0FFF705FE04E000F0A6F8204600F0A0
:102DA00035F9257720680169C943090716D4C16838
:102DB000C943090712D46FF008010161042020778C
:102DC0002068C0698007204602D0FFF7E9FD04E0D3
:102DD00000F08AF8204600F019F92577206801698B
:102DE000C943C90617D4C168C943C90613D46FF0D3
:102DF00010010161082020772068C06910F4407F2D
:102E0000204602D0FFF7CCFD04E000F06DF820462C
:102E100000F0FCF8257720680169C943C90708D18B
:102E2000C168C943C90704D1891E0161204600F069
:102E300053F920680169C943090609D4C168C94327
:102E4000090605D46FF0800101612046FFF7E1FB20
:102E500020680169C943490609D4C168C9434906C4
:102E600005D46FF040010161204600F0CBFA2068E4
:102E70000169C94389060BD4C168C943890607D4CF
:102E80006FF0200101612046BDE87040FFF7C2BB32
:102E900070BD000010B586B0044614216846FDF7E9
:102EA0005AFA0E492068884216D10D48002102685E
:102EB00042F010020260006800F0100005904FF42C
:102EC000007000900220CDE901010120CDE903103E
:102ED00069460448FEF714FC06B010BD000001402E
:102EE0003038024000100240704770B5044690F838
:102EF0003C000D4601280AD0012084F83C0042B174
:102F0000042A18D0082A2AD00C2A4DD139E00220F0
:102F100070BD206801F004F82068816941F0080163
:102F200081612068816921F00401816120688169E3
:102F30002A69114311E0206801F022F820688169B4
:102F400041F4006181612068816921F480618161BF
:102F5000206881692A6941EA0221816124E02068B0
:102F600001F044F82068C16941F00801C16120689E
:102F7000C16921F00401C1612068C1692A69114356
:102F800011E0206801F066F82068C16941F4006131
:102F9000C1612068C16921F48061C1612068C16993
:102FA0002A6941EA0221C161002084F83C0070BD19
:102FB00010B5040003D094F83D0010B107E00120E3
:102FC00010BD002084F83C00204600F01EF80220CE
:102FD00084F83D00211D206800F01EFF012084F8C8
:102FE000460084F83E0084F83F0084F8400084F8EE
:102FF000410084F8420084F8430084F8440084F8D7
:10300000450084F83D00002010BD70477047000067
:1030100010B50446022249B104290ED0082913D064
:1030200094F84100012816D0012010BD94F83E000C
:103030000128F9D184F83E200FE094F83F000128E0
:10304000F2D184F83F2008E094F840000128EBD149
:1030500084F8402001E084F841200122206800F03B
:103060003FFF16492068164A884201D0904203D19A
:10307000436C43F4004343642068884213D0B0F1AA
:10308000804F10D00F4988420DD00F4988420AD096
:103090000E49884207D0904205D00D49884202D09F
:1030A0000C49884204D1816801F00701062903D048
:1030B000016841F001010160002010BD00000140E5
:1030C000000401400004004000080040000C0040E3
:1030D000004001400018004070B52DED048B01F058
:1030E0003BF98E4C84ED180B01F05AF984ED1A0B64
:1030F0009FED8B0B84ED1C0B01F088F984ED1E0B0A
:1031000001F000FA04F1800080ED000B9FED860BCA
:10311000874D80ED020B288901F034FF41EC100B44
:103120009FED844B9FED853B9FED868BB0EE482A4B
:10313000F0EE682A9FED859BB0EE491AF0EE691A11
:1031400001F0E9FB84ED100BE88801F01BFF41EC76
:10315000100B9FED804B9FED813BB0EE482AF0EEC7
:10316000682AB0EE491AF0EE691A01F0D4FB84ED3A
:103170000E0B01F0EBF984ED060B01F0A7FA84EDDC
:10318000080BFEF7C5FB01F0FDFE41EC100B84EDD2
:10319000120B94ED141B53EC112B02F083F8C4E9CD
:1031A000160101F0D3F994ED161B51EC100B53EC02
:1031B000112B01F037FF9FED6B8B53EC182B01F0B7
:1031C00045FD94ED0A1B53EC112B01F08BFCC4E977
:1031D0000A0101F07BFA94ED161B51EC100B53EC35
:1031E000112B01F01FFF53EC182B01F02FFD94ED74
:1031F0000C1B53EC112B01F075FCC4E90C0194ED90
:10320000120B84ED140B803C1E212078B0FBF1F2F0
:1032100001FB120060BB322001F02CF904F16001C7
:10322000B1F900002083B1F902506583B1F904605F
:10323000A68301F090FE9FED4D8B53EC182B01F00F
:10324000F1FE01F01DFCE062284601F084FE53EC23
:10325000182B01F0E7FE01F013FC2063304601F06B
:103260007AFE53EC182B01F0DDFE01F009FC6063DF
:1032700020781421B0FBF1F201FB12003D4E002535
:10328000A0BB607AB8B1254B29495C3B03F16202CF
:103290003C313948FDF778FC204B25495C3B03F174
:1032A000620254313448FDF76FFC6572002201213F
:1032B0003248FEF728FB01F099FB184B1C495C3B98
:1032C00003F142020C312C48FDF75EFC134B184908
:1032D0005C3B03F14A0224312748FDF755FC28489E
:1032E000FEF749FB02213046FEF705FBA07878B9CE
:1032F00001F062F9E07228B1052803D00120E070E6
:10330000024601E0E570002280213046FEF7FBFA1C
:103310002078401C2070BDEC048B70BD8000002024
:1033200005D95B2AAED569C033251FBDE7C29140E0
:1033300020010020000000000000344000000000D8
:10334000000034C00000000000FEAF40000000009C
:10335000000000004904BD4A51C1E03F4904BD4A94
:1033600051C1E0BF0000000000408F40DE718A8E36
:10337000E4F27F3F000002405002002000040240BF
:10338000780200200246002041B1042909D0082912
:103390000AD00C2901D11068006C70471068406B8E
:1033A00070471068806B70471068C06B704770B5CD
:1033B000044690F83C00012812D0012584F83C50C6
:1033C000022084F83D00204600F06CFE01004FF022
:1033D000000007D084F83D5084F83C00012070BD07
:1033E000022070BD2168CA6822F04002CA602168CC
:1033F000CA6822F48042CA6084F83D5084F83C00D8
:10340000002070BD704770B5040004D094F83D00F2
:10341000002510B106E0012070BD84F83C50204624
:1034200000F022F8242084F83D002068C16821F4CF
:103430000051C160204600F0F7FE2068016921F4C8
:10344000904101612068416921F02A0141612068B1
:10345000C16841F40051C1602564202084F83D001A
:1034600084F83E00002070BD70B586B00646142179
:103470006846FCF770FF1F493068884238D11E4803
:103480000025016841F010010160006800F01000A3
:10349000059019481438016841F001010160006885
:1034A000694600F0010005904FF4C06000900220D2
:1034B000CDE9010503200390072004900F48FEF793
:1034C0001FF9104C0E4820604FF00060C4E9010560
:1034D0004014C4E903506561A561E5612562204699
:1034E0006562FDF7E5FF08B1FDF760F9B463A66317
:1034F00006B070BD00100140443802400000024098
:103500004064024040040020FEE700002DE9FF4136
:103510004FF000083748CDF80080CDF80480CDF892
:103520000880334ACDF80C80026001244FF4403209
:103530000461C0E90128047680F820802E4AC0E9A1
:103540000A280725C0F80C80C56180F83040446126
:10355000FDF7D7F908B1FDF729F90226CDE9006496
:103560000524694623480294FDF722F908B1FDF7C6
:103570001DF90327CDE9007669461E48FDF718F9C5
:1035800008B1FDF713F9042669461A48CDE900672A
:10359000FDF70EF908B1FDF709F9CDE90086694696
:1035A0001448FDF705F908B1FDF700F90E20CDE943
:1035B000000469460F48FDF7FBF808B1FDF7F6F87F
:1035C0000A2000900620019069460A48FDF7F0F8AD
:1035D00008B1FDF7EBF80B20CDE900056946054879
:1035E000FDF7E6F8002801D0FDF7E0F8BDE8FF811F
:1035F00000200140A80100200100000F0F4810B575
:103600000D4901600721416000214FF48022816053
:10361000C0E903124FF4A00242610176417681763F
:10362000C17601774177FDF716FD002803D0BDE88C
:103630001040FDF7BBB810BD0064004050020020F0
:10364000094808B5016841F4800101600068002262
:1036500000F48000009011463A20FEF7FDF9BDE825
:1036600008403A20FEF7EAB9303802402DE9F04729
:1036700086B014216846FCF76EFE4E4800240168AF
:1036800041F010010160016801F01001059101682D
:1036900041F080010160016801F08001059101683D
:1036A00041F004010160016801F004010591016825
:1036B00041F001010160016801F00101059101681B
:1036C00041F002010160016801F002010591016809
:1036D00041F0080101600068374F00F008000590D4
:1036E0000022E2213846FEF70EF9DFF8D0800022F2
:1036F00020214046FEF707F9DFF8C490002201219F
:103700004846FEF700F9DFF8BCA000224FF48041E4
:103710005046FEF7F8F80122D1035046FEF7F3F8C1
:10372000294E2C20CDE90006012569460295504618
:10373000FDF7E6FF1220CDE900060220029069465F
:103740005046FDF7DDFFE2200090CDE901546946C7
:1037500038460394FDF7D4FF20200090CDE90154B2
:10376000694640460394FDF7CBFF0095CDE901542F
:10377000694648460394FDF7C3FFA802CDE900045B
:10378000694650460294FDF7BBFF4FF4404000905D
:10379000CDE90154694650460394FDF7B1FF00227C
:1037A00001210720FEF758F90720FEF747F906B078
:1037B000BDE8F087303802400000024000080240B7
:1037C000000402400010024000003110094810B50A
:1037D00007490160032141604FF47A718160FEF76F
:1037E0009DF8002803D0BDE81040FCF7DFBF10BDF6
:1037F000003000407802002010B500221146382029
:10380000FEF72AF93820FEF719F9002201210920D4
:10381000FEF722F90920FEF711F902220121082002
:10382000FEF71AF90820FEF709F9002202211C20F0
:10383000FEF712F91C20FEF701F9002203211420E3
:10384000FEF70AF91420FEF7F9F8012211460A20C2
:10385000FEF702F90A20FEF7F1F8002203211720F3
:10386000FEF7FAF8BDE810401720FEF7E7B80000B1
:10387000104810B50E4901604FF48271416000217B
:1038800002228160C0E90312012242615202826178
:103890002822C0E90721416281620A21C162FEF744
:1038A000ADFB002803D0BDE81040FCF77FBF10BD82
:1038B000003800408402002010B596B000240F9418
:1038C00010941194129413941C2108A81494FCF7DA
:1038D00042FD20216846FCF73EFD2848264901604C
:1038E00040F28521C0E90114FE21C0E903144461BE
:1038F0008461FEF703FF08B1FCF758FF4FF48050D6
:103900000F900FA91D48FEF7DFFF08B1FCF74EFF2F
:103910001A48FFF74DFB08B1FCF748FF139413A9B1
:1039200016481494FEF7A2FE08B1FCF73FFF602092
:10393000CDE908040A940B940C940D94002208A974
:103940000E480E94FFF7D1FA08B1FCF72FFF009450
:103950004FF40050CDE90440029401940394694669
:1039600006480794FEF757FE08B1FCF71FFF03480F
:10397000FFF790FA16B010BD00000140DC020020F5
:1039800010B586B000241748009401940294039463
:1039900004944FF08041059401604AF21041C0E95F
:1039A00001140221C0E903148461FEF7A7FE08B1E7
:1039B000FCF7FCFE4FF48050009069460948FEF782
:1039C00083FF08B1FCF7F2FE2020CDE9040404A92E
:1039D0000448FEF74BFE002801D0FCF7E7FE06B0D6
:1039E00010BD00002403002070B58CB0142104A881
:1039F000FCF7B1FC002431480A9409940094019426
:103A000002942D490394C0E900144FF6FF71C0E9F8
:103A1000024104618461FEF771FE08B1FCF7C6FE45
:103A20002648FFF7D0F808B1FCF7C0FE0420049048
:103A30006020CDE9050404A920480894FFF7B7FCED
:103A400008B1FCF7B3FE099409A91C480A94FEF7D3
:103A50000DFE08B1FCF7AAFE02250095CDE9015440
:103A60000022694615480394FFF726F808B1FCF7D1
:103A70009DFE0126CDE90046042269460F48FFF766
:103A80001BF808B1FCF792FE0095082269460B4826
:103A90000195FFF711F808B1FCF788FECDE9004663
:103AA0000C2269460548FFF707F8002801D0FCF70B
:103AB0007DFE0CB070BD0000000400406C030020CF
:103AC00070B58CB0142104A8FCF745FC00243148E3
:103AD0000A9409940094019402942D490394C0E936
:103AE00000144FF6FF71C0E9024104618461FEF7E2
:103AF00005FE08B1FCF75AFE2648FFF764F808B146
:103B0000FCF754FE042004906020CDE9050404A9CC
:103B100020480894FFF74BFC08B1FCF747FE0994D6
:103B200009A91C480A94FEF7A1FD08B1FCF73EFE66
:103B300002250095CDE901540022694615480394F9
:103B4000FEF7BAFF08B1FCF731FE0126CDE90046C9
:103B5000042269460F48FEF7AFFF08B1FCF726FEC6
:103B60000095082269460B480195FEF7A5FF08B1AC
:103B7000FCF71CFECDE900460C2269460548FEF71D
:103B80009BFF002801D0FCF711FE0CB070BD0000B7
:103B900000080040B40300200C4810B50A49016039
:103BA0004FF4E1314160002181600C22C160C0E925
:103BB00004128161C161FFF726FC002803D0BDE833
:103BC0001040FCF7F3BD10BD00100140FC030020C5
:103BD000FEE7FEE77047F8B5044640684FF482738D
:103BE000984221D1A0684FF48065B0F5004F01D014
:103BF000A8420AD12068066826F040060660606880
:103C0000984211D1A068A8420ED000920B46002223
:103C10008021204600F03AF8002804D0606D40F082
:103C2000200060650320F8BD00920B4600220121B0
:103C3000EFE7000038B504461248134B0068B0FBAC
:103C4000F3F04FF47A73584300906068B0F5827FC8
:103C50000DD10B46009200228021204600F016F87C
:103C600070B1606D40F020006065032038BD0098A1
:103C700030B1401E009020688068C0430006F6D531
:103C8000002038BD1C01002000366E012DE9F843EC
:103C90001E46914688460446089DFDF739FE401BA6
:103CA000351AFDF735FE074625480068C0F3CB30CE
:103CB000684338E0701C37D0FDF72AFEC01BA842CD
:103CC00003D215B1009860B32CE02068416821F060
:103CD000E00141606068B0F5827F0BD1A068B0F56B
:103CE000004F02D0B0F5806F04D12068016821F048
:103CF00040010160A06AB0F5005F09D12068016849
:103D000021F4005101602068016841F40051016014
:103D1000012084F85100002084F850000320BDE801
:103D2000F8830025401E00902068816838EA010071
:103D300004D000214945BDD10020F0E70121F9E779
:103D40001C0100207047FDF71DBE000030B593B088
:103D500030216846FCF7FFFA14210CA8FCF7FBFAA7
:103D60001E480024016841F080510160006800F0A5
:103D7000805011901A48016841F480410160006848
:103D8000102100F4804011900A2000900120CDE91C
:103D900003010225CDE905050820CDE90740A8204B
:103DA000CDE9090504200B906846FDF771FF08B1C5
:103DB00072B6FEE70F20CDE90C054FF4A050CDE917
:103DC0000E404FF48050109005210CA8FDF776FEB0
:103DD000002801D072B6FEE713B030BD4038024073
:103DE000007000400248016841F4700101607047B2
:103DF00088ED00E00148FEF799BF00002403002091
:103E00000148FEF793BF00006C0300200148FEF755
:103E10008DBF0000B4030020F0B50268254C264D8C
:103E2000264E274F274B4FF0804CA04209D06045CB
:103E300007D0A84205D0B04203D0B84201D0984282
:103E400004D122F0700E4A6842EA0E02A0421BD052
:103E5000604519D0A84217D0B04215D0B84213D04F
:103E6000984211D0184DA8420ED0184DA8420BD040
:103E7000174DA84208D0174DA84205D0164DA842AC
:103E800002D0164DA84203D122F44075CA682A43D5
:103E90004D6922F080022A4302608A68C2620A6881
:103EA0008262A04201D0984201D1096901630121D7
:103EB0004161F0BD000001400004004000080040E6
:103EC000000C00400004014000400140004401405B
:103ED0000048014000180040001C00400020004045
:103EE00010B501F01F030121046A99408C4304625C
:103EF000016A9A401143016210BD10B5846842EA1C
:103F0000032224F47F440A432243826010BD826866
:103F100022F070020A4342F00701816070470000FE
:103F2000F0B5026A22F001020262036A4268846903
:103F3000124E24F073050C682C4323F002058B68A5
:103F40002B430D4DA84201D0B04205D123F0080704
:103F5000CB683B4323F00403A84201D0B04205D113
:103F60004D6922F4407215438A692A434260846194
:103F7000496841630362F0BD000001400004014054
:103F8000F0B5026A22F010020262026A4368846994
:103F90000D6824F4E64444EA05248D6822F02002EA
:103FA00042EA05120F4D104EA84201D0B04206D190
:103FB000CF6822F0800242EA071222F04002A842B3
:103FC00001D0B04207D14D6923F4406343EA850331
:103FD0008D6943EA850343608461496881630262B5
:103FE000F0BD00000000014000040140F0B5026A8D
:103FF00022F480720262026A4368C46922F4007289
:1040000024F073050C68124E2C438D6842EA052299
:104010000E4DA84201D0B04206D1CF6822F4006212
:1040200042EA072222F48062A84201D0B04207D1BE
:104030004D6923F4405343EA05138D6943EA0513A0
:104040004360C4614968C1630262F0BD0000014081
:104050000004014030B5026A22F480520262046A10
:104060004268C3690D6823F4E64343EA05238D687B
:1040700024F4005444EA0534084DA84202D0084D07
:10408000A84204D14D6922F4804242EA851242607E
:10409000C36149680164046230BD00000000014052
:1040A0000004014010B503689A6822F070044A6861
:1040B000224322F007040A6822439A604A6812F0F9
:1040C0000F0F30D11211082A2DD2DFE802F02C2C6C
:1040D0002C2C0B2127040B69D1E902210068FFF782
:1040E0000CFF20E00A68052A10D00268136A146ADF
:1040F00024F00104146202689469096924F0F00450
:1041000044EA01119161006803620CE0012010BDD6
:104110000A698968006800F008F804E00A6989689B
:10412000006800F053F8002010BD10B5036A046A5F
:1041300024F001040462846924F0F00444EA0214C7
:1041400023F00A020A438461026210BD70B5046A5A
:1041500024F0010404628469056A154EB04214D04B
:10416000B0F1804F11D0134EB0420ED0124EB0427B
:104170000BD0124EB04208D0114EB04205D0114EB5
:10418000B04202D0104EB04203D124F003041443D5
:1041900001E044F001041A0724F0F00444EA12623A
:1041A00025F00A0301F00A0119438261016270BD22
:1041B000000001400004004000080040000C0040E6
:1041C00000040140004001400018004010B5036A9F
:1041D00023F0100303628369046A23F4704343EA03
:1041E000023224F0A00343EA01118261016210BD92
:1041F00030B5046A24F0100404628469056A24F46A
:10420000407444EA022222F470444FF6FF7202EA3C
:1042100003322243A02425F0A00304EA011119432C
:104220008261016230BD000070B50446006801691A
:10423000E26821F44051114301612169A068E269FB
:1042400008436169114308432168CA6849F20C6355
:104250009A430243CA6020684169A26921F440710F
:104260001143416131492068884202D03049884277
:1042700002D1FDF7CDFC01E0FDF7BAFCE2690023B5
:10428000192164253226B2F5004F626828D0A0FBC0
:104290000101930F9200FBF7E7FF0146B0FBF5F039
:1042A0006FF01802504301EB800006EB0010B0FBEA
:1042B000F5F000F0F002B1FBF5F002EB0012B1FBFB
:1042C000F5F06FF01803584301EB800006EB001087
:1042D000B0FBF5F000F00F0021681044886070BD5D
:1042E000A0FB010192185B41FBF7BEFF0146B0FB4A
:1042F000F5F00201B1FBF5F06FF01803584301EB44
:10430000800006EBC000B0FBF5F000F0F80002EB17
:104310004002B1FBF5F0584301EB800006EBC00012
:10432000B0FBF5F000F00700D6E7000000100140F8
:1043300000140140FEE70907090E002804DB00F124
:10434000E02080F80014704700F00F0000F1E0203A
:1043500080F8141D704700009FED0C0B0D4810B540
:1043600053EC102B90ED100B51EC100B00F05AFE9B
:1043700041EC100B53EC102B9FED070B51EC100B85
:1043800000F064FC41EC100B10BD000000000000C8
:1043900000C0724080000020CA5A56E52FC9F0C004
:1043A00010B515489FED120B2DED028B53EC102B21
:1043B00090ED108B51EC180B00F034FE53EC182BE1
:1043C00000F030FE41EC100B53EC102B9FED0B0B6B
:1043D00051EC100B00F03AFC9FED0A1B53EC112B33
:1043E00000F054FFBDEC028B41EC100B10BD00003F
:1043F0000000000000C07240800000208CC1171136
:10440000F02EB440000000000000F0BF9FED0C0B48
:104410000D4810B553EC102B90ED100B51EC100B18
:1044200000F000FE41EC100B53EC102B9FED070B3E
:1044300051EC100B00F00AFC41EC100B10BD000019
:104440000000000000003940800000204AA807A5B5
:104450003A26E3C010B50121312000F033F80021E5
:104460002D2000F02FF80821BDE810402D2000F08D
:1044700029B8000031B5104D9DF800004FF40044FC
:1044800040F0C0008DF80000002221462846FDF7CC
:104490003AFA6423012269460848FDF702FF6423C3
:1044A000062207490548FDF74FFE0122214628460E
:1044B000FDF729FA38BD00000010024084020020F8
:1044C0006000002038B540F040008DF800000B4D32
:1044D0008DF801104FF40044002221462846FDF7D4
:1044E00012FA6423022269460548FDF7DAFE01222A
:1044F00021462846FDF707FA38BD000000100240AB
:10450000840200209FED0C0B0D4810B553EC102BCE
:1045100090ED100B51EC100B00F084FD41EC100BF2
:1045200053EC102B9FED070B51EC100B00F08EFBA2
:1045300041EC100B10BD00000000000000C07240F4
:1045400080000020CA5A56E52FC9E04010B52DED75
:10455000048BFFF7D7FF174C51EC100B94ED0E1B9B
:1045600053EC112B00F05EFD41EC180BFFF718FF28
:1045700094ED0C1B51EC100B53EC112B00F052FD81
:1045800041EC190BFFF7E8FE94ED0A1B51EC100B00
:1045900053EC112B00F046FD53EC192B00F0A2FA5E
:1045A00053EC182B00F09EFABDEC048B41EC100B81
:1045B00010BD00008000002010B51F4C40F6D270E6
:1045C0002288824205D86188814202D8A38883422A
:1045D00001D9012010BD501A00F0BDFC00EE100AF8
:1045E0009FED161B21F0004110EE100A53EC112B29
:1045F00000F016FE01D2022010BD20884FF47A632D
:10460000984205D86188994202D8A2889A4201D975
:10461000032010BDB2F5487F0BD9084440F2416138
:10462000884204D9074901204870042010BD0520A4
:1046300010BD002010BD000020010020000000007F
:1046400000409F40000000202DE9F041FFF7B4FF3B
:104650001B4C01261B4F0025E07206281CD2DFE808
:1046600000F0190303030D16012280213846FDF7DF
:104670004AF96582A582E670A5700DE0012220212D
:104680003846FDF740F96582A582667007E06582CD
:10469000A58201E000F088F9607800280ED00A4871
:1046A000018840880844B0F5C87F07D26570384655
:1046B000BDE8F04100222021FDF725B9BDE8F081D9
:1046C00000000020000002402001002010B51B4C1B
:1046D0009FED180B2DED048B51EC100B94ED0E1B80
:1046E00053EC112B00F09EFC41EC190BFFF78EFEF2
:1046F00094ED0C1B51EC100B53EC112B00F092FCC1
:104700009FED0F0B94ED0A1B41EC180B53EC112B92
:1047100051EC100B00F086FC53EC182B00F0E2F982
:1047200053EC192B00F0DEF9BDEC048B41EC100BBF
:1047300010BD000033251FBDE7C29140800000205E
:1047400005D95B2AAED569C0FDF724F9FFF7FEFA5B
:10475000FEF78CFFFEF774FFFEF7D8FEFEF74EFF64
:10476000FFF70EF9FFF732F8FFF782F8FFF73CF991
:10477000FFF7A6F9FFF7A0F8FFF70EFAFFF73CF8EE
:10478000052252495248FCF743F95248FEF75CF8BB
:10479000FBF77CFFFBF726FF4F4D10212846FDF766
:1047A000A5F808B1012100E000214C4CE17121B1D4
:1047B000012220214A48FDF7A6F808212846FDF7E6
:1047C00095F870B300202072FFF744FE00214548A1
:1047D000FEF728FA04214348FEF724FA082141484D
:1047E000FEF720FA0C213F48FEF71CFA00213E4854
:1047F000FEF718FA04213C48FEF714FA08213A485B
:10480000FEF710FA0C213848FEF70CFA0021374861
:10481000FEF7FEFB364D374E4FF47A78A07818B18C
:1048200034E0FFE70120CEE700276782A7823A46FF
:1048300040213046FDF767F8002220213046FDF781
:1048400062F82762214F4FF44879B888484503D36E
:10485000A07908B1E07830B300206863206A404551
:10486000F3D30120A070322068636420FCF7C2FEFD
:10487000002068636420FCF7BDFE64206863FCF7D9
:10488000B9FE00206863A0780028C7D000228021EC
:104890003046FDF738F8012240213046FDF733F865
:1048A000FFF7D2FEBAE7FDF733F8A062C8206863CD
:1048B000206A04E0FDF72CF8A16A401A2062404506
:1048C000CFD2A0790028C0D0F4E70000200100205A
:1048D000A801002024030020001002400000002056
:1048E000000802406C030020B4030020DC0200201A
:1048F000000001400000024030B504460398641AED
:10490000C51A6C43511A94FBF1F1194489B28142E2
:1049100000D8084630BD10B551EC120B2DED0C8BB4
:10492000B0EE41CAF0EE61CAB0EE448AF0EE648A9D
:10493000B0EE439AF0EE639AB0EE40DAF0EE60DA51
:1049400053EC1C2B00F0AEFC41EC1A0B53EC192B72
:1049500051EC180B00F0A6FC41EC1B0B53EC1C2B8C
:1049600051EC1D0B00F09EFC53EC1B2B00F05AFB8E
:1049700053EC1A2B00F06AF953EC192B00F0B2F843
:1049800041EC190B53EC182B00F04AFC06D2B0EEA8
:10499000480AF0EE680ABDEC0C8B10BDB0EE490A77
:1049A000F0EE690AF7E70000F8B50E4C4FF4AF657A
:1049B0000095208861880023084440F6D8674008A5
:1049C0003A461946FFF798FF074E00233A46708291
:1049D000009520886188084440081946FFF78CFF3D
:1049E000B082F8BD200100200000002070B51F4CEF
:1049F000E08900F0C7FA9FED1E1B53EC112B00F06D
:104A000011FB41EC100B53EC102B9FED1B0B51ECE9
:104A1000100B00F01BF900F071FA82B22282A37829
:104A200004F1660000F108012BB14FF4AF639A4224
:104A300009D91D4608E000220270427042710A70D6
:104A40004A704A7170BD1546668AB54203D99A42CA
:104A500000D91A466282628AA282130A02704370E7
:104A6000012444710A704B704C7170BD000000202D
:104A7000E17A14AE47E1BA3F000000000088E3404D
:104A800021F00042A2F16052B2F5801F01F0004314
:104A900028BFD2F17F6C0BD95FEA001C43EAC20247
:104AA00042EB507018BF704728BF20F001007047DC
:104AB000B2F5801FBCBF184670474FEA410C1CF589
:104AC000001F02D2084600F0DCBC70B500F054FBB9
:104AD00000000089FFF7F6BF4FF00040A0F580000E
:104AE0007047000010B591EA030F48BF83F0004300
:104AF00000F1E083841A71EB030C05D2121943EB29
:104B00000C03001B61EB0C01DFF824E14FEA1154A8
:104B1000A4EB135C1EEA430F18BF9EEA445F73D0F8
:104B200023EA0E03DCF1200E21EA045143F4801342
:104B300032D322FA0CFE10EB0E0023FA0CFE41EBEE
:104B40000E01CCF1200E03FA0EFE10EB0E0051F117
:104B50000001B1F5801FCCF1200E32D201EB0451DF
:104B600012FA0EF2BDE8104058BF7047401C38BF23
:104B70005FEA420218BF7047002814BF20F001000E
:104B800041F100014FEA410313F5001F38BF7047A0
:104B9000A1F1C04100F03EBB012A43EB0302ACF19E
:104BA000200CDCF11F0E32BF4FF0000E23FA0CF385
:104BB00010EB030041EB0451B4EB115FD0D0A1EB3B
:104BC000045101F5801149085FEA300001EB0451FE
:104BD0000ED350F1000038BF12FA0EFE08D1BDE826
:104BE0001040C9E7401C38BF5FEA4202CAD1C3E7A0
:104BF000BDE810404FEA410313F5001F38BF70476E
:104C0000A1F1C04100F006BB9EEA445F08D011EA62
:104C10005E0FBDE8104004BF01F000410020704766
:104C2000BDE8104070B500F0A7FA00BF64FBBE3EBF
:104C30000000E0FF491058BFC1F140415B1058BF70
:104C4000C3F140438B42EFF3008070472DE9C04130
:104C500030B4DFF8A0C23CEA111418BF3CEA1314C8
:104C600000F0EC8081EA03051CEA111444EAD574D3
:104C700018BF1CEA131500F0C780A4EB05044FF021
:104C8000004545EAC12145EAC32341EA505143EAC0
:104C9000525304F17F74994204F500344FEAC02066
:104CA0004FEAC22208BF904200F09C804FEA136591
:104CB0000FF24016765D4FEA134506FB05F7C7F184
:104CC000807706FB07F74FEAD737A7FB03687642E2
:104CD000C8F58038A7FB06CE38BFA8F1010807FB4E
:104CE00008E64FF0000EA6FB028CE6FB03CEDCF1DB
:104CF000000CCEF1004E38BFAEF1010EA6FB0C58F1
:104D00004FF000074FF00005E6FB0E87A1FB08C639
:104D1000A0FB07CE16EB0E0645F10005E1FB07658B
:104D200015F1E04E7EBFA4F580345FEA46066D4182
:104D300016F1800745F100054FEA17274FEA06668E
:104D400047EA0567A6F1DE46B6F1805F4FEA152512
:104D50001FD9384624F0010C05EBC471BCF1FE6F7D
:104D600001EB0C1102D8F0BCBDE8008124425CBF0D
:104D700001F5801E9EEAC47F02D4F0BCBDE800812C
:104D8000244238D4F0BCA1F1C041BDE8004100F09C
:104D900041BA4FEAD22242EA43524FEAD323A7FB59
:104DA00002864FEAD02040EA415007FB03661EEA24
:104DB0000E0F4FEAD12105FB026658BFA6EB005645
:104DC000B6EB00564FEA520E4EEAC37E18EB0E0EBB
:104DD00056EB530EBDD518EB02085E417F1C55F112
:104DE0000005B6E74FF480154FF000074FF00006BE
:104DF0004FF00008ADE7F0BC4FF0000001F1C041FA
:104E000001F00041BDE8008111EA0C1F0CEA131506
:104E100000D00CE013EA0C1F00F025804FF00000DA
:104E2000F0BC81EA030101F00041BDE80081F0BC63
:104E3000BDE8004181EA030100F0ECB9F0BCBDE837
:104E4000004170B500F098F9097EFC3E00F007B80B
:104E500081EA03014FF0000001F00041704781EA50
:104E6000030100F0D7B9F0BCBDE800414FF00000ED
:104E700021497047FFFDFBF9F7F5F4F2F0EEEDEB99
:104E8000E9E8E6E4E3E1E0DEDDDBDAD8D7D5D4D348
:104E9000D1D0CFCDCCCBCAC8C7C6C5C4C2C1C0BF94
:104EA000BEBDBCBBBAB9B8B7B6B5B4B3B2B1B0AF9A
:104EB000AEADACABAAA9A8A8A7A6A5A4A3A3A2A17E
:104EC000A09F9F9E9D9C9C9B9A9999989797969539
:104ED00095949393929191908F8F8E8E8D8C8C8BD5
:104EE0008B8A89898888878786858584848383825D
:104EF000828181800000FF070000F87F4FEA115394
:104F0000A3F58063D3F11E03A8BFD3F1200C08DB07
:104F10004FF0004242EAC12252EA505232FA03F004
:104F2000704709420BD4102BC4BF0020704703F513
:104F3000787CBCF1FF3F05D04FF0FF3070474FF059
:104F40000000704770B500F017F900BF4992248047
:104F500000207047F0E710F0004248BF4042B0FA2E
:104F600080F310FA03F10AD0C3F11D0303F5806347
:104F70004FEA415002EB035202EBD12170474FF050
:104F800000007047B0FA80F310FA03F10AD0C3F1C1
:104F90001D0303F580634FEA41504FEA035202EBD1
:104FA000D12170474FF000007047000051EA030C18
:104FB00017D41CF5801F58BFBCF5801F00F1068078
:104FC000994218BF704708BF9042704707D711F544
:104FD000801F58BF13F5801F19D49942704789422A
:104FE00070471CF5801F08D5BCF5801FF7D58B4294
:104FF00018BF704708BF824270474FF4001C1CEB7B
:10500000410F38BF1CEB430F01D28B42704770B584
:1050100000F0B2F8922449004FF000514FF0805355
:10502000FFF708BEDFF848C170B51CEA111E1EBFAD
:105030001CEA13159EEA0C0F95EA0C0F00F06F8026
:1050400081EA030423EA4C134EEAD47E21EA4C1190
:1050500041F4801143F48013AE44A1FB024CA0FB49
:105060000365AEF17F7E361955EB0C05A1FB034CB1
:105070004CF10003A0FB021C16EB0C06654153F13A
:105080000003094218BF46F0010613F4007F0BD15C
:105090004FEA03314FEA0530340341EA155140EA43
:1050A00016506FF003020AE04FEAC3214FEAC52011
:1050B000F40241EA555140EA56506FF0020202EB09
:1050C0002E4201EB025585EACE710AD05FEA440C0C
:1050D00018BF24F0004450F1000041F1000120EA23
:1050E000D47040F2FE7C624500D270BDA84214BF6D
:1050F0004FF080444FF04044002E08BF0024BEF122
:10510000806FA8BFA1F1C041BDE8704080F28280ED
:105110004FF0000001F1C04101F0004170479EEAEC
:105120000C0F0CEA131518BF95EA0C0F06D04FF0C0
:10513000000081EA030E0EF0004170BD00F01CF883
:105140008900013E00F007B800F009B84FEA430CAF
:105150005FEA5C5C08D081EA030100F05BB84FEACB
:10516000410C5FEA5C5CF6D14FF0000001497047EA
:105170000000FF070000F87F0EF1020E2EF0030E74
:105180005EF8046B364205D4012A43EB030515F59E
:10519000001F12D8012841EB010C1CF5001F0CD890
:1051A0000ED14FEAD17C15F5001F0CEB4C0C0CF125
:1051B000020C08BF4CEBD37C04E04FF0080C01E07C
:1051C0004FEAD37C0CEB4C0526FA05F606F00706F1
:1051D000B6F1040C06D20EEB860CBDE870404CF024
:1051E000010C6047DFE80CF0090B02024FF00041B0
:1051F0004FF00000A1F5002170BD194610460128AE
:1052000051EB010418BFD4F5001484BF002001F055
:10521000004170BD0808A0F500114FEA3101704748
:1052200053EA010C17D41CF5801F58BFBCF5801F32
:1052300000F106808B4218BF704708BF824270475A
:1052400007D713F5801F58BF11F5801F19D48B4263
:1052500070479B4270471CF5801F08D5BCF5801F26
:10526000F7D5994218BF704708BF904270474FF476
:10527000001C1CEB430F38BF1CEB410F01D29942BD
:1052800070470FB40CBC03BCFFF7C1BE91EA030F1B
:1052900010B581F000413FF52DAC83F0004300F0E4
:1052A00009B8000010B591EA030F48BF83F000432E
:1052B0003FF520AC841A71EB030C07D212198CF065
:1052C000004C43EB0C03001B61EB0C01DFF8A4E185
:1052D0004FEA1154A4EB135C1EEA430F18BF9EEA79
:1052E000445F00F0B08023EA6E03524221EA045189
:1052F000C3EB6E0338BF5B1EDCF1200E25D322FA10
:105300000CFE10EB0E0043FA0CFE41EB0E01CCF14B
:10531000200E03FA0EFE10EB0E0051F10001CCF14D
:10532000200E29D412FA0EF201EB0451BDE8104010
:1053300058BF7047401C1CBFB2F1004F7047002897
:105340000CBF491C20F00100704712EB020E43EB2A
:10535000030218BF4FF0010E4EEA4202ACF1200CDE
:10536000DCF11E0E54D943FA0CFE10EB0E0051F185
:10537000FF31CCF11E0ED5D50EF1010E12FA0EFE44
:10538000404141EB010101EB445C5FEA5C5C10D9F8
:1053900010EBDE7001EB045138BFBEF1004FBDE8E9
:1053A000104018BF704700280CBF491C20F00100B6
:1053B000704730D24FEAD42C11F5001124F4006468
:1053C0001BD0B1FA81F20B3AA41AA41ED2F1200329
:1053D000914030FA03F31943904001EBCC71002C5B
:1053E00001EB0451BDE81040A8BF704701F1C04176
:1053F0004FF0000001F000417047B0FA80F310FA5E
:1054000003F100D110BDE41A173C4805C90AE4E7CE
:1054100001EB045110BD491001EB0451BDE81040EF
:105420004FEA300002E04FF0000170474A0008BF29
:105430000042F8D0B2F5001F28BF704701F00041CC
:105440004FF0000070479EEA445F07D011EA5E0FFC
:10545000BDE8104004BF002100207047BDE81040A7
:1054600070B5FFF789FE00BF40DFF63E83F00041D4
:10547000104670470000E0FF4FF04070E1EE100A68
:105480007047FF2141EAD050C00570470006101652
:1054900000061016000000000000000001020304D6
:1054A000060708090000000001020304CC540008AC
:1054B0000000002020010000C4010008EC55000895
:1054C00020010020E0090000E001000800000000C9
:1054D00000000000000000000000000000000000CC
:1054E00000000000000000000000000000000000BC
:1054F00000000000000000000000000000000000AC
:10550000000000000000000000000000000000009B
:10551000000000000000000000000000000000008B
:10552000000000000000000000000000000000007B
:10553000000000000000000000000000000000006B
:10554000000000000000000000000000000000005B
:10555000000000000000000000000000000000004B
:10556000000000000000000000000000000000003B
:10557000000000000000000000000000000000002B
:10558000000000000000000000000000000000001B
:10559000000000000000000000000000000000000B
:1055A00000000000000000000000000000000000FB
:1055B00000000000000000000000000000000000EB
:1055C00000000000000000000000000000000000DB
:1055D00000000000000000000000000001000000CA
:0C55E00010000000000000000024F40097
:040000050800018965
:00000001FF
